S02100005261636B5F4C6F6F70436F6E74726F6C6C65725F504544414C2E73726563A0
S11300000C9434000C9451000C9451000C94510045
S11300100C94F1000C9451000C9451000C94510078
S11300200C9451000C9451000C9451000C94510008
S11300300C9451000C9451000C943F050C94510005
S11300400C9451000C9451000C9466060C94910687
S11300500C941F040C9451000C9451000C94510006
S11300600C9451000C94510011241FBECFEFD8E022
S1130070DEBFCDBF11E0A0E0B1E0EEE0FEE002C0E3
S113008005900D92A238B107D9F722E0A2E8B1E0B9
S113009001C01D92A435B207E1F70E9495010C94AA
S11300A005070C94000063E180E00E9457048093EC
S11300B0860180918801823079F490918601809143
S11300C08501981709F450C083E080938801109249
S11300D0840110928301089580918801843079F518
S11300E09091860180918501981741F010928401C6
S11300F01092830183E080938801089580910E0219
S1130100882391F180910E02813039F420E54FE685
S11301106FE68CE40E949C04089580910E02823064
S113012059F480918501807FF9F020E245E662E789
S113013080E50E949C04089580910E0208958091A8
S11301408801853089F49091860180918501981702
S113015021F086E08093880103C087E080938801C2
S11301601092840110928301089560918501809119
S113017088010E94B6040895D99AE8E6F0E08081E7
S11301808260808308953998ECE6F0E08081826093
S11301908083E8E6F0E08081826080830E94BC0076
S11301A00895CF936FE080E00E945704C82F61E167
S11301B080E00E9457048093860180918601882301
S11301C061F0C093850181E08093880181E090E033
S11301D0909384018093830102C00E94BC00CF915C
S11301E008951F920F920FB60F9211248F93EF93DD
S11301F0FF93319908C0E8E6F0E080818D7F808329
S113020081E080938701FF91EF918F910F900FBE52
S11302100F901F9018951092B90088E48093B8004D
S1130220089594EA9093BC00ECEBF0E0908199235C
S1130230ECF79091B900987F983011F09031A1F4C7
S11302408093BB0084E88093BC00ECEBF0E08081F9
S11302508823ECF79091B900987F983139F081E0C8
S1130260903429F480E0089581E0089580E00895B1
S113027084E98093BC00ECEBF0E0808184FDFDCF49
S113028008958093BB0084E88093BC00ECEBF0E01D
S113029080818823ECF79091B900987F81E09832AF
S11302A009F480E0089584E88093BC00ECEBF0E06E
S11302B080818823ECF78091BB00089540E060E0E2
S11302C080E00E9444044FEF61E080E00E94440417
S11302D04FEF65E080E00E94440440E069E080E084
S11302E00E9444044FEF6DE080E00E94440461E109
S11302F080E00E94570440E060E081E00E944404F2
S113030040E061E081E00E94440440E060E082E07B
S11303100E94440440E061E082E00E94440440E022
S113032060E084E00E9444040895209A0E9430050D
S11303300E940B0140E062E080E09BE40E94BD0566
S11303400E940D040E945E010E94C300789426E678
S113035046E669E682E70E949C040E943E06892BD9
S113036019F00E94FB01F9CF0E94E90181110E945A
S1130370DE020E94F20181110E94690380910D0244
S1130380882321F010920D020E94190480918701A4
S1130390882321F0109287010E94D100809182016C
S11303A0882321F0109282010E94530080918801D9
S11303B0833041F080918801863021F0809188015A
S11303C0873059F60E94B500109288010E94BC0043
S11303D0C4CF20918E0190918D0181E0291301C039
S11303E080E0089520918C0190918B0181E0291384
S11303F001C080E00895CF93DF9381E080930C02E5
S1130400C0918901D0E00E942306C151DE4F888348
S1130410809189018F5F809389018130E9F5809112
S1130420EF018F3509F4C7C0109289018091EF0163
S11304308C3AA9F481E090E090930101809300014B
S113044010928A01E0918B01F0E0EE0FFF1FEE0F96
S1130450FF1FEE0FFF1FE157FE4F8783ACC0809153
S1130460EF018A3209F0A7C080918A018F5F8093DF
S11304708A01843008F09FC0E0918B01F0E0EE0F18
S1130480FF1FEE0FFF1FEE0FFF1FE157FE4F1682F7
S113049081E080930C028FC0823079F4E0918E0168
S11304A0F0E08091F001EE0FFF1FEE0FFF1FEE0F43
S11304B0FF1FE155FE4F81837EC0E0918E01F0E085
S11304C0EE0FFF1FEE0FFF1FEE0FFF1FE155FE4F54
S11304D09181891370C0E0918E01F0E0EE0FFF1F4F
S11304E0EE0FFF1FEE0FFF1FE155FE4FE181F0E01D
S11304F0E251FE4F80818F3E09F055C0E0918E019C
S1130500F0E08091F101EE0FFF1FEE0FFF1FEE0FE1
S1130510FF1FE155FE4F8083E0918E01F0E0EE0F66
S1130520FF1FEE0FFF1FEE0FFF1FE155FE4F8181EE
S113053090E00497181619065CF520E030E040E0DE
S113054080918E01E82FF0E0D901AE50BE4F8C911E
S1130550EE0FFF1FEE0FFF1FEE0FFF1FE155FE4FC3
S1130560E20FF31F82834F5F242F30E0A0918E01AE
S1130570B0E0AA0FBB1FAA0FBB1FAA0FBB1FA15538
S1130580BE4F11968C9190E0049728173907C4F256
S113059080918E018F5F877090918D01891749F04A
S11305A080938E0106C08AE20E944B0681E080930C
S11305B00C0210928901DF91CF91089540918D0131
S11305C0E0918D01F0E0EE0FFF1FEE0FFF1FEE0F25
S11305D0FF1FE155FE4F6181E0918D01F0E0EE0FC8
S11305E0FF1FEE0FFF1FEE0FFF1FE155FE4F80812F
S11305F050E0440F551F440F551F440F551F4F54CF
S11306005E4F64500E94EE0490918D019F5F97703D
S113061090938D010E944B0681E080930C02089513
S113062020918C012F5F237090918B01291709F47D
S11306304EC0E0918C01F0E0EE0FFF1FEE0FFF1FA4
S1130640EE0FFF1FE157FE4F8083E0918C01F0E035
S1130650EE0FFF1FEE0FFF1FEE0FFF1FE157FE4FC0
S113066084E0860F8183E0918C01F0E0EE0FFF1FA0
S1130670EE0FFF1FEE0FFF1FE157FE4F1682E091B2
S11306808C01F0E0EE0FFF1FEE0FFF1FEE0FFF1FB8
S1130690E157FE4F17826623B1F0A42FB52F80E0F7
S11306A090E0E0918C01F0E03D91EE0FFF1FEE0F22
S11306B0FF1FEE0FFF1FE157FE4FE80FF91F3283B4
S11306C00196861770F320938C0181E0089580E0F1
S11306D00895CF93E0918B01F0E0EE0FFF1FEE0F32
S11306E0FF1FEE0FFF1FE157FE4F8781882339F06C
S11306F080918B018F5F837080938B0184C0E09124
S11307008B01F0E0EE0FFF1FEE0FFF1FEE0FFF1F38
S1130710E157FE4F8681811176C08FE50E944B061A
S1130720E0918B01F0E0EE0FFF1FEE0FFF1FEE0FC5
S1130730FF1FE157FE4F81810E944B06E0918B0120
S1130740F0E0EE0FFF1FEE0FFF1FEE0FFF1FE1574C
S1130750FE4F80810E944B06E0918B01F0E0EE0F8A
S1130760FF1FEE0FFF1FEE0FFF1FE157FE4F8181AA
S113077090E00497181619064CF520E030E0C0E02C
S113078080918B01E82FF0E0EE0FFF1FEE0FFF1FAB
S1130790EE0FFF1FE157FE4FE20FF31F82810E940D
S11307A04B06CF5F2C2F30E0A0918B01B0E0AA0F55
S11307B0BB1FAA0FBB1FAA0FBB1FA157BE4F119689
S11307C08C9190E0049728173907D4F28FEE0E9499
S11307D04B0680910C02811103C081E080930D02CD
S11307E0E0918B01F0E0EE0FFF1FEE0FFF1FEE0F05
S11307F0FF1FE157FE4F81E0868381E090E09093F4
S1130800010180930001CF910895811103C05D9887
S11308105E9A08955D9A5E9808958AB180668AB951
S113082081E00E940504E1ECF0E080818064808333
S1130830089580E00E9405040E94600608951F92B6
S11308400F920FB60F9211242F933F934F935F9300
S11308506F937F938F939F93AF93BF93EF93FF9384
S113086081E00E940504FF91EF91BF91AF919F91A8
S11308708F917F916F915F914F913F912F910F9045
S11308800FBE0F901F901895CF93DF93D62FC42FD0
S11308908062880F0E9411018D2F0E9441018C2FCC
S11308A00E9441010E943801DF91CF910895CF93B6
S11308B0DF93D62F8062C82FCC0F8C2F0E9411019A
S11308C08D2F0E9441010E9438018C2F81600E946B
S11308D011010E945301DF91CF91089581110AC043
S11308E0E62FF0E0EE5FFE4F408165E181E00E947B
S11308F044040895813049F4E62FF0E0EE5FFE4FA2
S1130900408164E10E9444040895823049F4E62F52
S1130910F0E0EE5FFE4F408165E10E9444040895DB
S1130920833049F4E62FF0E0EE5FFE4F408164E14E
S113093082E00E94440408951F93CF93DF93C82F4D
S1130940D62F142F622F80E00E946E04612F81E065
S11309500E946E046D2F82E00E946E046C2F83E06F
S11309600E946E04DF91CF911F910895CF93DF937E
S11309701F92CDB7DEB76983833041F4AE014F5F78
S11309805F4F61E081EB0E94100324C0863041F484
S1130990AE014F5F5F4F61E082EB0E9410031AC00B
S11309A08730C1F4AE014F5F5F4F61E084EB0E947A
S11309B0100380910E02833069F080910E02823020
S11309C019F489818F7031F422E74EE665E784E5F6
S11309D00E949C040F90DF91CF910895CF93DF93F1
S11309E0853D41F4613081F5FA01808180930E02E6
S11309F08CEA33C0EA01873D51F4643039F52B8128
S1130A004A81698188810E949C048CEA26C0803DC9
S1130A1049F46130E9F4488164E180E00E944404CF
S1130A208CEA1BC0833DB1F46230B1F4488164E1C7
S1130A3084E00E9444048981882319F0289A8CEA6E
S1130A400CC028988CEA09C08AE207C08AE205C073
S1130A508AE203C08AE201C08AE2DF91CF9108955D
S1130A6084B5826084BD16BC8CE787BDEEE6F0E0F9
S1130A7080818260808385B5846085BD08951F92DE
S1130A800F920FB60F9211242F938F939F938091FF
S1130A900C02882361F080910C028F5F80930C021A
S1130AA0843028F010920C0281E080930D02809132
S1130AB0000190910101019690930101809300013E
S1130AC0893E934040F081E090E09093010180934F
S1130AD0000180930B028091830190918401892B02
S1130AE009F443C08091830190918401019690930D
S1130AF08401809383018091830190918401813BDF
S1130B009440B0F080918801843091F40AC08091BF
S1130B1088018230E1F414C080918801813029F584
S1130B201EC081E08093820185E0809388011DC00E
S1130B3080918301909184018935924040F707C0E8
S1130B4084E08093880181E0809382010EC08091CB
S1130B508301909184018D389105F0F606C082E0FE
S1130B608093880181E0809382019F918F912F91DE
S1130B700F900FBE0F901F901895CF93DF93D62F31
S1130B80C42F519A599A1092130210921202109281
S1130B90110210921002A0E0B0E0880F991FAA1F62
S1130BA0BB1F880F991FAA1FBB1F9C01AD01220FF9
S1130BB0331F441F551F220F331F441F551F60E06E
S1130BC074E284EF90E00E94CF0621503109309303
S1130BD0C5002093C400E2ECF0E080818F73808331
S1130BE0D23021F480818860808305C0E2ECF0E09B
S1130BF08081877F8083C23049F4E2ECF0E0808119
S1130C008F7E80838081806280830DC0C33031F405
S1130C10E2ECF0E080818063808305C0E2ECF0E0E8
S1130C2080818F7C8083E2ECF0E080818660808329
S1130C30E1ECF0E08081806A808380818861808338
S1130C40DF91CF910895909111028091100298172D
S1130C5091F0E0911002EF5FEF71E0931002F0E089
S1130C60EC5EFD4F208180910F0290E0982F882741
S1130C70820F911D089580E091E008958091110202
S1130C802091100290E04F96821B91096FE170E071
S1130C900E94BB060895909113029F5F9F7120915B
S1130CA01202921751F0E92FF0E0EC5CFD4F8083C3
S1130CB09093130281E090E0089580E090E008951D
S1130CC0E1ECF0E080818062808308951F920F92AE
S1130CD00FB60F9211242F938F939F93EF93FF934B
S1130CE08091C0002091C6008770E0911102EF5FEF
S1130CF0EF7190911002E91739F0E0931102F0E0DE
S1130D00EC5EFD4F208301C082E080930F02FF91CF
S1130D10EF919F918F912F910F900FBE0F901F9085
S1130D2018951F920F920FB60F9211248F939F93D1
S1130D30EF93FF939091130280911202981769F038
S1130D40E0911202EF5FEF71E0931202F0E0EC5CCD
S1130D50FD4F80818093C60005C0E1ECF0E0808106
S1130D608F7D8083FF91EF919F918F910F900FBEA4
S1130D700F901F90189597FB072E16F4009407D038
S1130D8077FD09D00E94F10607FC05D03EF490954A
S1130D9081959F4F0895709561957F4F0895A1E2C5
S1130DA01A2EAA1BBB1BFD010DC0AA1FBB1FEE1FE1
S1130DB0FF1FA217B307E407F50720F0A21BB30B2C
S1130DC0E40BF50B661F771F881F991F1A9469F7A8
S1130DD060957095809590959B01AC01BD01CF0104
S1130DE00895AA1BBB1B51E107C0AA1FBB1FA6176E
S1130DF0B70710F0A61BB70B881F991F5A95A9F7C0
S1110E0080959095BC01CD010895F894FFCF24
S1130E0E0100FFFFFFFFFFFFFFFFFFFFFFFFFFFFDD
S1130E1EFFFFFFFFFFFFFFFFFFFFFFFFFFFFFFFFD0
S1130E2EFFFFFFFFFFFFFFFFFFFFC6F0FFFFFFBF48
S1130E3EFF9BC0F9A4B0999282F88090FFFFFFFF48
S1130E4EFFFFFF8883C6A1868EC289F9E18AC7EAAD
S1130E5EABC08C98AFD287C1C1D58991E4C6FFF0DF
S1130E6EFFF7FF8883A7A1868EC28BFBE18AC7EAB0
S1130E7EABA38C98AFD287E3E3C18991E4FFFFFF64
S1050E8EFFFF60
S9030000FC
