:100000000C9434000C9451000C9451000C94510049
:100010000C94E2000C9451000C9451000C9451008B
:100020000C9451000C9451000C9451000C9451000C
:100030000C9451000C9451000C9452040C945100F7
:100040000C9451000C9451000C9455050C948005AF
:100050000C948E030C9451000C9451000C9451009C
:100060000C9451000C94510011241FBECFEFD8E026
:10007000DEBFCDBF11E0A0E0B1E0ECEEFBE002C0DE
:1000800005900D92A832B107D9F721E0A8E2B1E0BE
:1000900001C01D92A83FB207E1F70E9486010C94AF
:1000A000F4050C940000AF92CF92EF920F9363E1AE
:1000B00080E00E94C60380932C0180912E01823043
:1000C00071F490912C0180912B019817D1F183E06C
:1000D00080932E0110922A011092290132C0809142
:1000E0002E018430C9F490912C0180912B01981736
:1000F00041F010922A011092290183E080932E0191
:1001000020C0A12CC12CE12C00E025E444E66FE6E0
:100110008DE60E941B0415C080912E01853089F464
:1001200090912C0180912B01981721F086E080930B
:100130002E0103C087E080932E0110922A011092B5
:1001400029010F91EF90CF90AF9008950895D99A1B
:10015000E8E6F0E0808182608083089561E180E0DC
:100160000E94C60380932C013998ECE6F0E0808170
:1001700082608083E8E6F0E08081826080830E9474
:10018000A7000895CF936FE080E00E94C603C82FB8
:1001900061E180E00E94C60380932C0180912C01D4
:1001A000882361F0C0932B0181E080932E0181E0D0
:1001B00090E090932A018093290102C00E94A70039
:1001C000CF9108951F920F920FB60F9211248F9323
:1001D000EF93FF93319908C0E8E6F0E080818D7FCE
:1001E000808381E080932D01FF91EF918F910F909B
:1001F0000FBE0F901F9018951092B90088E480935D
:10020000B800089594EA9093BC00ECEBF0E0908184
:100210009923ECF79091B900987F983011F09031C4
:10022000A1F48093BB0084E88093BC00ECEBF0E089
:1002300080818823ECF79091B900987F983139F04C
:1002400081E0903429F480E0089581E0089580E011
:10025000089584E98093BC00ECEBF0E0808184FD9C
:10026000FDCF08958093BB0084E88093BC00ECEB45
:10027000F0E080818823ECF79091B900987F81E0CD
:10028000983209F480E0089584E88093BC00ECEB98
:10029000F0E080818823ECF78091BB00089540E076
:1002A00060E080E00E94B3034FEF61E080E00E94D5
:1002B000B3034FEF65E080E00E94B30340E069E0E4
:1002C00080E00E94B3034FEF6DE080E00E94B30333
:1002D00061E180E00E94C60340E060E081E00E94AE
:1002E000B30340E061E081E00E94B30340E060E0DE
:1002F00082E00E94B30340E061E082E00E94B30329
:1003000040E060E084E00E94B3030895209A0E94D8
:1003100043040E94FC0040E062E080E09BE40E9415
:10032000AC040E947C030E944F010E94AE007894AE
:10033000A12CC12CE12C00E026E646E669E682E726
:100340000E941B040E942D05892B19F00E94F001C8
:10035000F9CF0E94DE0181110E94A7020E94E701ED
:1003600081110E94D8028091B201882321F010925D
:10037000B2010E94880380912D01882321F0109200
:100380002D010E94C20080912801882321F0109243
:1003900028010E94530080912E01833041F080910A
:1003A0002E01863021F080912E01873059F60E946F
:1003B000A60010922E010E94A700C4CF2091340104
:1003C0009091330181E0291301C080E008952091CC
:1003D00032019091310181E0291301C080E008953C
:1003E000CF93DF9381E08093B101C0912F01D0E0E2
:1003F0000E941205CB56DE4F888380912F018F5FBC
:1004000080932F018130E9F5809195018F3509F4B2
:100410009BC010922F01809195018C3AA9F481E044
:1004200090E0909301018093000110923001E091DF
:100430003101F0E0EE0FFF1FEE0FFF1FEE0FFF1F69
:10044000EB5CFE4F878380C0809195018A3209F072
:100450007BC0809130018F5F80933001843008F041
:1004600073C0E0913101F0E0EE0FFF1FEE0FFF1FB0
:10047000EE0FFF1FEB5CFE4F168281E08093B1010F
:1004800063C0823079F4E0913401F0E0809196010C
:10049000EE0FFF1FEE0FFF1FEE0FFF1FEB5AFE4F79
:1004A000818352C0E0913401F0E0EE0FFF1FEE0FA8
:1004B000FF1FEE0FFF1FEB5AFE4F9181891344C0BF
:1004C000E0913401F0E0EE0FFF1FEE0FFF1FEE0F83
:1004D000FF1FEB5AFE4FE181F0E0EC56FE4F8081AA
:1004E0008F3E51F5E0913401F0E0A5E9B1E01296BC
:1004F0008C911297EE0FFF1FEE0FFF1FEE0FFF1FE5
:10050000EB5AFE4F8083E0913401F0E013968C911A
:10051000EE0FFF1FEE0FFF1FEE0FFF1FEB5AFE4FF8
:100520008283809134018F5F8770909133018917A6
:1005300049F08093340106C08AE20E943A0581E0C6
:100540008093B10110922F01DF91CF9108954091D6
:100550003301E0913301F0E0EE0FFF1FEE0FFF1FBC
:10056000EE0FFF1FEB5AFE4F6181E0913301F0E087
:10057000EE0FFF1FEE0FFF1FEE0FFF1FEB5AFE4F98
:10058000808150E0440F551F440F551F440F551FE5
:10059000495A5E4F0E944104909133019F5F9770CA
:1005A000909333010E943A0581E08093B101089550
:1005B000CF93E0913101F0E0EE0FFF1FEE0FFF1F30
:1005C000EE0FFF1FEB5CFE4F8781882339F080918F
:1005D00031018F5F83708093310184C0E0913101DC
:1005E000F0E0EE0FFF1FEE0FFF1FEE0FFF1FEB5CA3
:1005F000FE4F8681811176C08FE50E943A05E09119
:100600003101F0E0EE0FFF1FEE0FFF1FEE0FFF1F97
:10061000EB5CFE4F81810E943A05E0913101F0E0F0
:10062000EE0FFF1FEE0FFF1FEE0FFF1FEB5CFE4FE5
:1006300080810E943A05E0913101F0E0EE0FFF1F4A
:10064000EE0FFF1FEE0FFF1FEB5CFE4F818190E06E
:100650000497181619064CF520E030E0C0E08091B0
:100660003101E82FF0E0EE0FFF1FEE0FFF1FEE0F3E
:10067000FF1FEB5CFE4FE20FF31F82810E943A05E1
:10068000CF5F2C2F30E0A0913101B0E0AA0FBB1F4B
:10069000AA0FBB1FAA0FBB1FAB5CBE4F11968C915C
:1006A00090E0049728173907D4F28FEE0E943A059C
:1006B0008091B101811103C081E08093B201E0918A
:1006C0003101F0E0EE0FFF1FEE0FFF1FEE0FFF1FD7
:1006D000EB5CFE4F81E0868381E090E09093010126
:1006E00080930001CF910895811103C05E985F9AB5
:1006F00008955E9A5F9808958AB1806C8AB981E006
:100700000E947403E1ECF0E08081806480830895AE
:1007100080E00E9474030E944F0508951F920F927B
:100720000FB60F9211242F933F934F935F936F93C4
:100730007F938F939F93AF93BF93EF93FF9381E04A
:100740000E947403FF91EF91BF91AF919F918F91A0
:100750007F916F915F914F913F912F910F900FBEBD
:100760000F901F901895CF93DF93D62FC42F8062E0
:10077000880F0E9402018D2F0E9432018C2F0E944F
:1007800032010E942901DF91CF910895CF93DF9329
:10079000D62F8062C82FCC0F8C2F0E9402018D2F84
:1007A0000E9432010E9429018C2F81600E94020167
:1007B0000E944401DF91CF910895E0EDE60FEA3009
:1007C000A8F09FEB960F9A3118F4E9ECE60F0EC0F3
:1007D0009FE9960F9A3118F4E9EAE60F07C06D32E7
:1007E00021F0603239F5E5E201C0E4E2F0E0EE5FCD
:1007F000FE4F9081442319F0492F4F7702C0492FB3
:100800004068811105C065E181E00E94B30308954D
:10081000813021F464E10E94B3030895823021F411
:1008200065E10E94B3030895833021F464E182E01E
:100830000E94B3030895AF92CF92EF920F931F934C
:10084000CF93DF93C82FD62F142F4A2D622F80E02D
:100850000E94DD034C2D612F81E00E94DD034E2DAF
:100860006D2F82E00E94DD03402F6C2F83E00E94F9
:10087000DD03DF91CF911F910F91EF90CF90AF905B
:10088000089580E0089584B5826084BD16BC8CE72D
:1008900087BDEEE6F0E080818260808385B584606C
:1008A00085BD08951F920F920FB60F9211242F93BA
:1008B0008F939F938091290190912A01892B09F4AC
:1008C00043C08091290190912A01019690932A01B9
:1008D000809329018091290190912A01813B9440C4
:1008E000B0F080912E01843091F40AC080912E01E5
:1008F0008230E1F414C080912E01813029F51EC0B0
:1009000081E08093280185E080932E011DC08091B5
:10091000290190912A018935924040F707C084E06F
:1009200080932E0181E0809328010EC080912901DF
:1009300090912A018D389105F0F606C082E08093EF
:100940002E0181E0809328019F918F912F910F902C
:100950000FBE0F901F901895CF93DF93D62FC42F03
:10096000519A599A1092B7011092B6011092B5019E
:100970001092B401A0E0B0E0880F991FAA1FBB1F1E
:10098000880F991FAA1FBB1F9C01AD01220F331FA7
:10099000441F551F220F331F441F551F60E074E290
:1009A00084EF90E00E94BE05215031093093C500CC
:1009B0002093C400E2ECF0E080818F738083D2301A
:1009C00021F480818860808305C0E2ECF0E08081C2
:1009D000877F8083C23049F4E2ECF0E080818F7E33
:1009E00080838081806280830DC0C33031F4E2EC6B
:1009F000F0E080818063808305C0E2ECF0E08081DC
:100A00008F7C8083E2ECF0E0808186608083E1EC83
:100A1000F0E08081806A8083808188618083DF91BB
:100A2000CF9108959091B5018091B401981791F0FC
:100A3000E091B401EF5FEF71E093B401F0E0E854AE
:100A4000FE4F20818091B30190E0982F8827820F7C
:100A5000911D089580E091E008958091B501209165
:100A6000B40190E04F96821B91096FE170E00E9403
:100A7000AA0508959091B7019F5F9F712091B601DB
:100A8000921751F0E92FF0E0E852FE4F80839093E7
:100A9000B70181E090E0089580E090E00895E1ECF6
:100AA000F0E080818062808308951F920F920FB6DC
:100AB0000F9211242F938F939F93EF93FF93809125
:100AC000C0002091C6008770E091B501EF5FEF7123
:100AD0009091B401E91739F0E093B501F0E0E854E2
:100AE000FE4F208301C082E08093B301FF91EF911C
:100AF0009F918F912F910F900FBE0F901F9018957F
:100B00001F920F920FB60F9211248F939F93EF9322
:100B1000FF939091B7018091B601981769F0E09129
:100B2000B601EF5FEF71E093B601F0E0E852FE4FDF
:100B300080818093C60005C0E1ECF0E080818F7D6C
:100B40008083FF91EF919F918F910F900FBE0F9037
:100B50001F90189597FB072E16F4009407D077FD89
:100B600009D00E94E00507FC05D03EF490958195E0
:100B70009F4F0895709561957F4F0895A1E21A2EB9
:100B8000AA1BBB1BFD010DC0AA1FBB1FEE1FFF1F31
:100B9000A217B307E407F50720F0A21BB30BE40B81
:100BA000F50B661F771F881F991F1A9469F76095C8
:100BB0007095809590959B01AC01BD01CF01089582
:100BC000AA1BBB1B51E107C0AA1FBB1FA617B70773
:100BD00010F0A61BB70B881F991F5A95A9F780958F
:0C0BE0009095BC01CD010895F894FFCF62
:100BEC000100C0F9A4B0999282F880908883C6A1C4
:100BFC00868EC28BFBE18AC7EAABA38C98AFD287F7
:080C0C00E3E3C18991E4BFFF9D
:00000001FF
