:100000000C9434000C9451000C9451000C94510049
:100010000C9417010C9451000C9451000C94510055
:100020000C9451000C9451000C9451000C9451000C
:100030000C9451000C9451000C949E050C945100AA
:100040000C9451000C9451000C94C5060C94F006CD
:100050000C944D040C9451000C9451000C945100DC
:100060000C9451000C94510011241FBECFEFD8E026
:10007000DEBFCDBF11E0A0E0B1E0ECECFEE002C0DD
:1000800005900D92A238B107D9F722E0A2E8B1E0BD
:1000900001C01D92A435B207E1F70E94BB010C9488
:1000A00064070C94000060918501809188010E9492
:1000B000E7040895D99AE8E6F0E0808182608083C1
:1000C00008953998ECE6F0E0808182608083E8E66C
:1000D000F0E08081826080830E945A000895CF936F
:1000E0006FE080E00E948504C82F61E180E00E94FB
:1000F00085048093860180918601882361F0C093F6
:10010000850181E08093880181E090E090938401F3
:100110008093830109C080918801843019F486E0BE
:10012000809388010E945A00CF910895AF92CF9298
:10013000EF920F9363E180E00E9485048093860133
:1001400080918801823079F49091860180918501B7
:10015000981709F467C083E08093880110928401A6
:10016000109283015FC080918801843009F045C0FE
:100170009091860180918501981741F01092840139
:100180001092830183E0809388014CC00E945A0042
:1001900080910E02882309F445C080910E028130BF
:1001A00059F4A12CC12CE12C00E020E54FE66FE6CC
:1001B0008CE40E94C10436C080910E028230D1F4DA
:1001C00080918501807F59F0A12CC12CE12C00E0A9
:1001D00020E245E662E780E50E94C10423C0A12C2D
:1001E000C12CE12C00E02EE54EE56EE58EE50E9487
:1001F000C10418C080910E0215C08091880185301D
:1002000089F49091860180918501981721F086E00C
:100210008093880103C087E0809388011092840155
:10022000109283010F91EF90CF90AF9008951F929D
:100230000F920FB60F9211248F93EF93FF93319982
:1002400008C0E8E6F0E080818D7F808381E08093C4
:100250008701FF91EF918F910F900FBE0F901F902C
:1002600018951092B90088E48093B800089594EA34
:100270009093BC00ECEBF0E090819923ECF7909127
:10028000B900987F983011F09031A1F48093BB00B1
:1002900084E88093BC00ECEBF0E080818823ECF7ED
:1002A0009091B900987F983139F081E0903429F429
:1002B00080E0089581E0089580E0089584E98093C6
:1002C000BC00ECEBF0E0808184FDFDCF08958093CD
:1002D000BB0084E88093BC00ECEBF0E080818823D5
:1002E000ECF79091B900987F81E0983209F480E0B2
:1002F000089584E88093BC00ECEBF0E080818823D3
:10030000ECF78091BB00089540E060E080E00E943F
:1003100072044FEF61E080E00E9472044FEF65E0ED
:1003200080E00E94720440E069E080E00E94720474
:100330004FEF6DE080E00E94720461E180E00E9476
:10034000850440E060E081E00E94720440E061E0EA
:1003500081E00E94720440E060E082E00E9472044A
:1003600040E061E082E00E94720440E060E084E0EE
:100370000E9472040895209A0E948F050E94310104
:1003800040E062E080E09BE40E941C060E943B0487
:100390000E9484010E9461007894A12CC12CE12C60
:1003A00000E026E646E669E682E70E94C1040E9474
:1003B0009D06892B19F00E942502F9CF0E94130295
:1003C00081110E940C030E941C0281110E9497035C
:1003D00080910D02882321F010920D020E944704A3
:1003E00080918701882321F0109287010E946F007D
:1003F00080918201882321F0109282010E94960050
:1004000080918801833041F080918801863021F00D
:1004100080918801873059F60E945300109288011C
:100420000E945A00C4CF20918E0190918D0181E0ED
:10043000291301C080E0089520918C0190918B01D7
:1004400081E0291301C080E00895CF93DF9380916C
:100450000C02882319F081E080930C02C09189017D
:10046000D0E00E948206C151DE4F888380918901CD
:100470008F5F809389018130E9F58091EF018F359D
:1004800009F4C7C0109289018091EF018C3AA9F458
:1004900081E090E0909301018093000110928A0125
:1004A000E0918B01F0E0EE0FFF1FEE0FFF1FEE0F4C
:1004B000FF1FE157FE4F8783ACC08091EF018A3266
:1004C00009F0A7C080918A018F5F80938A018430F0
:1004D00008F09FC0E0918B01F0E0EE0FFF1FEE0FE0
:1004E000FF1FEE0FFF1FE157FE4F168281E0809342
:1004F0000C028FC0823079F4E0918E01F0E080919F
:10050000F001EE0FFF1FEE0FFF1FEE0FFF1FE15573
:10051000FE4F81837EC0E0918E01F0E0EE0FFF1F61
:10052000EE0FFF1FEE0FFF1FE155FE4F9181891364
:1005300070C0E0918E01F0E0EE0FFF1FEE0FFF1F85
:10054000EE0FFF1FE155FE4FE181F0E0E251FE4F5B
:1005500080818F3E09F055C0E0918E01F0E08091DE
:10056000F101EE0FFF1FEE0FFF1FEE0FFF1FE15512
:10057000FE4F8083E0918E01F0E0EE0FFF1FEE0F43
:10058000FF1FEE0FFF1FE155FE4F818190E00497A2
:10059000181619065CF520E030E040E080918E01ED
:1005A000E82FF0E0D901AE50BE4F8C91EE0FFF1F47
:1005B000EE0FFF1FEE0FFF1FE155FE4FE20FF31F7F
:1005C00082834F5F242F30E0A0918E01B0E0AA0F0C
:1005D000BB1FAA0FBB1FAA0FBB1FA155BE4F119671
:1005E0008C9190E0049728173907C4F280918E010E
:1005F0008F5F877090918D01891749F080938E01EC
:1006000006C08AE20E94AA0681E080930C02109242
:100610008901DF91CF91089540918D01E0918D0185
:10062000F0E0EE0FFF1FEE0FFF1FEE0FFF1FE15573
:10063000FE4F6181E0918D01F0E0EE0FFF1FEE0FA4
:10064000FF1FEE0FFF1FE155FE4F808150E0440F6A
:10065000551F440F551F440F551F4F545E4F645094
:100660000E942B0590918D019F5F977090938D0153
:100670000E94AA0681E080930C02089520918C01CB
:100680002F5F237090918B01291709F44EC0E091E0
:100690008C01F0E0EE0FFF1FEE0FFF1FEE0FFF1FAC
:1006A000E157FE4F8083E0918C01F0E0EE0FFF1FD9
:1006B000EE0FFF1FEE0FFF1FE157FE4F84E0860F86
:1006C0008183E0918C01F0E0EE0FFF1FEE0FFF1F22
:1006D000EE0FFF1FE157FE4F1682E0918C01F0E014
:1006E000EE0FFF1FEE0FFF1FEE0FFF1FE157FE4F34
:1006F00017826623B1F0A42FB52F80E090E0E0913F
:100700008C01F0E03D91EE0FFF1FEE0FFF1FEE0F8B
:10071000FF1FE157FE4FE80FF91F3283019686173E
:1007200070F320938C0181E0089580E00895CF93C9
:10073000E0918B01F0E0EE0FFF1FEE0FFF1FEE0FB9
:10074000FF1FE157FE4F8781882339F080918B018D
:100750008F5F837080938B0184C0E0918B01F0E008
:10076000EE0FFF1FEE0FFF1FEE0FFF1FE157FE4FB3
:100770008681811176C08FE50E94AA06E0918B01E7
:10078000F0E0EE0FFF1FEE0FFF1FEE0FFF1FE15710
:10079000FE4F81810E94AA06E0918B01F0E0EE0FEE
:1007A000FF1FEE0FFF1FEE0FFF1FE157FE4F80816F
:1007B0000E94AA06E0918B01F0E0EE0FFF1FEE0F02
:1007C000FF1FEE0FFF1FE157FE4F818190E004975E
:1007D000181619064CF520E030E0C0E080918B013E
:1007E000E82FF0E0EE0FFF1FEE0FFF1FEE0FFF1FD1
:1007F000E157FE4FE20FF31F82810E94AA06CF5FEE
:100800002C2F30E0A0918B01B0E0AA0FBB1FAA0FE4
:10081000BB1FAA0FBB1FA157BE4F11968C9190E032
:10082000049728173907D4F28FEE0E94AA06809108
:100830000C02811103C081E080930D02E0918B01D5
:10084000F0E0EE0FFF1FEE0FFF1FEE0FFF1FE1574F
:10085000FE4F81E0868381E090E0909301018093D8
:100860000001CF910895811103C05E985D9A0895AB
:100870005E9A5D9808958AB180668AB981E00E9487
:100880003304E1ECF0E0808180648083089580E0AF
:100890000E9433040E94BF0608951F920F920FB664
:1008A0000F9211242F933F934F935F936F937F93F6
:1008B0008F939F93AF93BF93EF93FF9381E00E9439
:1008C0003304FF91EF91BF91AF919F918F917F91F1
:1008D0006F915F914F913F912F910F900FBE0F90AD
:1008E0001F901895CF93DF93D62FC42F8062880F67
:1008F0000E9437018D2F0E9467018C2F0E94670193
:100900000E945E01DF91CF910895CF93DF93D62FA0
:100910008062C82FCC0F8C2F0E9437018D2F0E9430
:1009200067010E945E018C2F81600E9437010E9446
:100930007901DF91CF910895E62FF0E0EE5FFE4F51
:10094000908141119068811106C0492F65E181E0D5
:100950000E9472040895813029F4492F64E10E94B5
:1009600072040895823029F4492F65E10E947204CF
:100970000895833029F4492F64E182E00E947204D3
:100980000895AF92CF92EF920F931F93CF93DF937F
:10099000C82FD62F142F4A2D622F80E00E949C046E
:1009A0004C2D612F81E00E949C044E2D6D2F82E022
:1009B0000E949C04402F6C2F83E00E949C04DF91D6
:1009C000CF911F910F91EF90CF90AF900895AF927C
:1009D000CF92EF920F93CF93DF931F92CDB7DEB7F5
:1009E0006983833041F4AE014F5F5F4F61E081EB7B
:1009F0000E943E0328C0863041F4AE014F5F5F4F36
:100A000061E082EB0E943E031EC08730E1F4AE013C
:100A10004F5F5F4F61E084EB0E943E0380910E02C6
:100A2000833089F080910E02823019F489818F70B1
:100A300051F4A12CC12CE12C00E022E74EE665E741
:100A400084E50E94C1040F90DF91CF910F91EF9048
:100A5000CF90AF900895AF92CF92EF920F93CF9334
:100A6000DF93853DF1F4613009F049C0FA018081DE
:100A7000843029F481E080930E028CEA49C08630EC
:100A800029F482E080930E028CEA42C0883029F477
:100A900083E080930E028CEA3BC010920E028CEA37
:100AA00037C0EA01873D71F4643059F5A12CC12C9F
:100AB000E12C00E02B814A81698188810E94C10478
:100AC0008CEA26C0803D49F46130E9F4488164E154
:100AD00080E00E9472048CEA1BC0833DB1F4623056
:100AE000B1F4488164E184E00E9472048981882322
:100AF00019F0289A8CEA0CC028988CEA09C08AE27E
:100B000007C08AE205C08AE203C08AE201C08AE225
:100B1000DF91CF910F91EF90CF90AF90089584B572
:100B2000826084BD16BC8CE787BDEEE6F0E0808174
:100B30008260808385B5846085BD08951F920F9281
:100B40000FB60F9211242F938F939F9380910C02D5
:100B5000882361F080910C028F5F80930C028430B7
:100B600028F010920C0281E080930D028091000128
:100B70009091010101969093010180930001893EBB
:100B8000934040F081E090E0909301018093000158
:100B900080930B028091830190918401892B09F449
:100BA00043C08091830190918401019690938401C8
:100BB000809383018091830190918401813B9440D3
:100BC000B0F080918801843091F40AC0809188014E
:100BD0008230E1F414C080918801813029F51EC073
:100BE00081E08093820185E0809388011DC080911F
:100BF0008301909184018935924040F707C084E0D9
:100C00008093880181E0809382010EC080918301EE
:100C1000909184018D389105F0F606C082E08093B2
:100C2000880181E0809382019F918F912F910F9095
:100C30000FBE0F901F901895CF93DF93D62FC42F20
:100C4000519A599A109213021092120210921102A4
:100C500010921002A0E0B0E0880F991FAA1FBB1FDE
:100C6000880F991FAA1FBB1F9C01AD01220F331FC4
:100C7000441F551F220F331F441F551F60E074E2AD
:100C800084EF90E00E942E07215031093093C50077
:100C90002093C400E2ECF0E080818F738083D23037
:100CA00021F480818860808305C0E2ECF0E08081DF
:100CB000877F8083C23049F4E2ECF0E080818F7E50
:100CC00080838081806280830DC0C33031F4E2EC88
:100CD000F0E080818063808305C0E2ECF0E08081F9
:100CE0008F7C8083E2ECF0E0808186608083E1ECA1
:100CF000F0E08081806A8083808188618083DF91D9
:100D0000CF9108959091110280911002981791F05F
:100D1000E0911002EF5FEF71E0931002F0E0EC5E03
:100D2000FD4F208180910F0290E0982F8827820F3D
:100D3000911D089580E091E0089580911102209125
:100D4000100290E04F96821B91096FE170E00E94C3
:100D50001A070895909113029F5F9F7120911202CC
:100D6000921751F0E92FF0E0EC5CFD4F80839093F7
:100D7000130281E090E0089580E090E00895E1ECB6
:100D8000F0E080818062808308951F920F920FB6F9
:100D90000F9211242F938F939F93EF93FF93809142
:100DA000C0002091C6008770E0911102EF5FEF71E3
:100DB00090911002E91739F0E0931102F0E0EC5E37
:100DC000FD4F208301C082E080930F02FF91EF91DD
:100DD0009F918F912F910F900FBE0F901F9018959C
:100DE0001F920F920FB60F9211248F939F93EF9340
:100DF000FF939091130280911202981769F0E0918D
:100E00001202EF5FEF71E0931202F0E0EC5CFD4F35
:100E100080818093C60005C0E1ECF0E080818F7D89
:100E20008083FF91EF919F918F910F900FBE0F9054
:100E30001F90189597FB072E16F4009407D077FDA6
:100E400009D00E94500707FC05D03EF4909581958B
:100E50009F4F0895709561957F4F0895A1E21A2ED6
:100E6000AA1BBB1BFD010DC0AA1FBB1FEE1FFF1F4E
:100E7000A217B307E407F50720F0A21BB30BE40B9E
:100E8000F50B661F771F881F991F1A9469F76095E5
:100E90007095809590959B01AC01BD01CF0108959F
:100EA000AA1BBB1B51E107C0AA1FBB1FA617B70790
:100EB00010F0A61BB70B881F991F5A95A9F78095AC
:0C0EC0009095BC01CD010895F894FFCF7F
:100ECC000100FFFFFFFFFFFFFFFFFFFFFFFFFFFF23
:100EDC00FFFFFFFFFFFFFFFFFFFFFFFFFFFFFFFF16
:100EEC00FFFFFFFFDDFFFFFFFFFFC6F0FFFFFFBFB0
:100EFC00FFADC0F9A4B0999282F88090FFFFFFFF7C
:100F0C00FFFFFF8883C6A1868EC289F9E18AC7EAF2
:100F1C00ABC08C98AFD287C1C1D58991E4C69BF088
:100F2C00FEF7FF8883A7A1868EC28BFBE18AC7EAF6
:100F3C00ABA38C98AFD287E3E3C18991E4FFFFFFA9
:020F4C00FFFFA5
:00000001FF
