:100000000C9434000C9451000C9451000C94510049
:100010000C9417010C9451000C9451000C94510055
:100020000C9451000C9451000C9451000C9451000C
:100030000C9451000C9451000C94C4050C94510084
:100040000C9451000C9451000C940E070C94390739
:100050000C9473040C9451000C9451000C945100B6
:100060000C9451000C94510011241FBECFEFD8E026
:10007000DEBFCDBF11E0A0E0B1E0EEE0FFE002C0E6
:1000800005900D92A23AB107D9F722E0A2EAB1E0B9
:1000900001C01D92A739B207E1F70E94BB010C9481
:1000A00085070C9400006091A5018091A8010E9431
:1000B0000D050895D99AE8E6F0E08081826080839A
:1000C00008953998ECE6F0E0808182608083E8E66C
:1000D000F0E08081826080830E945A000895CF936F
:1000E0006FE080E00E94AB04C82F61E180E00E94D5
:1000F000AB048093A6018091A601882361F0C09390
:10010000A50181E08093A80181E090E09093A40193
:100110008093A30109C08091A801843019F486E07E
:100120008093A8010E945A00CF910895AF92CF9278
:10013000EF920F9363E180E00E94AB048093A601ED
:100140008091A801823079F49091A6018091A50157
:10015000981709F467C083E08093A8011092A40166
:100160001092A3015FC08091A801843009F045C0BE
:100170009091A6018091A501981741F01092A401D9
:100180001092A30183E08093A8014CC00E945A0002
:1001900080911102882309F445C0809111028130B9
:1001A00059F4A12CC12CE12C00E020E54FE66FE6CC
:1001B0008CE40E94E70436C0809111028230D1F4B1
:1001C0008091A501807F59F0A12CC12CE12C00E089
:1001D00020E245E662E780E50E94E70423C0A12C07
:1001E000C12CE12C00E02EE54EE56EE58EE50E9487
:1001F000E70418C08091110215C08091A8018530D4
:1002000089F49091A6018091A501981721F086E0CC
:100210008093A80103C087E08093A8011092A401F5
:100220001092A3010F91EF90CF90AF9008951F927D
:100230000F920FB60F9211248F93EF93FF93319982
:1002400008C0E8E6F0E080818D7F808381E08093C4
:10025000A701FF91EF918F910F900FBE0F901F900C
:1002600018951092B90088E48093B800089594EA34
:100270009093BC00ECEBF0E090819923ECF7909127
:10028000B900987F983011F09031A1F48093BB00B1
:1002900084E88093BC00ECEBF0E080818823ECF7ED
:1002A0009091B900987F983139F081E0903429F429
:1002B00080E0089581E0089580E0089584E98093C6
:1002C000BC00ECEBF0E0808184FDFDCF08958093CD
:1002D000BB0084E88093BC00ECEBF0E080818823D5
:1002E000ECF79091B900987F81E0983209F480E0B2
:1002F000089584E88093BC00ECEBF0E080818823D3
:10030000ECF78091BB00089540E060E080E00E943F
:1003100098044FEF61E080E00E9498044FEF65E0A1
:1003200080E00E94980440E069E080E00E94980428
:100330004FEF6DE080E00E94980461E180E00E9450
:10034000AB0440E060E081E00E94980440E061E09E
:1003500081E00E94980440E060E082E00E949804FE
:1003600040E061E082E00E94980440E060E084E0C8
:100370000E9498040895209A0E94B5050E943101B8
:1003800040E062E080E09BE40E945F060E9461041E
:100390000E9484010E9461007894A12CC12CE12C60
:1003A00000E026E646E669E682E70E94E704C1E04F
:1003B0000E94E006892B19F00E947B03F9CF0E946E
:1003C0002C0281110E943E020E94350281110E947E
:1003D000C90280911002882341F0109210020E94FD
:1003E0000607811102C00E946D0480910E028823CD
:1003F00021F010920E020E94650380910B02882367
:1004000039F010920B028AE20E94EB06C0931002B0
:100410008091A701882321F01092A7010E946F000C
:100420008091A201882321F01092A2010E949600DF
:100430008091A801833049F08091A801863029F08D
:100440008091A801873009F0B3CF0E945300109229
:10045000A8010E945A00ACCF2091AE019091AD014D
:1004600081E0291301C080E008952091AC019091B2
:10047000AB0181E0291301C080E008954091AD01F6
:10048000E091AD01F0E0EE0FFF1FEE0FFF1FEE0F4A
:10049000FF1FE155FE4F6181E091AD01F0E0EE0FED
:1004A000FF1FEE0FFF1FEE0FFF1FE155FE4F808174
:1004B00050E0440F551F440F551F440F551F4F5414
:1004C0005E4F64500E9451059091AD019F5F9770FF
:1004D0009093AD010E94EB0681E080930F02089596
:1004E0002091AC012F5F23709091AB01291709F483
:1004F0004EC0E091AC01F0E0EE0FFF1FEE0FFF1FCA
:10050000EE0FFF1FE050FF4F8083E091AC01F0E061
:10051000EE0FFF1FEE0FFF1FEE0FFF1FE050FF4F0C
:1005200084E0860F8183E091AC01F0E0EE0FFF1FC5
:10053000EE0FFF1FEE0FFF1FE050FF4F1682E091FE
:10054000AC01F0E0EE0FFF1FEE0FFF1FEE0FFF1FDD
:10055000E050FF4F17826623B1F0A42FB52F80E043
:1005600090E0E091AC01F0E03D91EE0FFF1FEE0F47
:10057000FF1FEE0FFF1FE050FF4FE80FF91F328300
:100580000196861770F32093AC0181E0089580E016
:100590000895CF93E091AB01F0E0EE0FFF1FEE0F57
:1005A000FF1FEE0FFF1FE050FF4F8781882339F0B8
:1005B0008091AB018F5F83708093AB0184C0E09129
:1005C000AB01F0E0EE0FFF1FEE0FFF1FEE0FFF1F5E
:1005D000E050FF4F8681811176C08FE50E94EB06C7
:1005E000E091AB01F0E0EE0FFF1FEE0FFF1FEE0FEB
:1005F000FF1FE050FF4F81810E94EB06E091AB01AD
:10060000F0E0EE0FFF1FEE0FFF1FEE0FFF1FE05099
:10061000FF4F80810E94EB06E091AB01F0E0EE0F0E
:10062000FF1FEE0FFF1FEE0FFF1FE050FF4F8181F6
:1006300090E00497181619064CF520E030E0C0E071
:100640008091AB01E82FF0E0EE0FFF1FEE0FFF1FD0
:10065000EE0FFF1FE050FF4FE20FF31F82810E9459
:10066000EB06CF5F2C2F30E0A091AB01B0E0AA0FDA
:10067000BB1FAA0FBB1FAA0FBB1FA050BF4F1196D5
:100680008C9190E0049728173907D4F28FEE0E94DE
:10069000EB0680910F02811103C081E0809310026C
:1006A000E091AB01F0E0EE0FFF1FEE0FFF1FEE0F2A
:1006B000FF1FE050FF4F81E0868381E090E0909340
:1006C000210180932001CF9108958091AA01853066
:1006D00088F48091AA018F5F8093AA01E091AB0119
:1006E000F0E0EE0FFF1FEE0FFF1FEE0FFF1FE050B9
:1006F000FF4F16820895CF93DF9380910F028823D6
:1007000019F081E080930F02C091A901D0E00E940E
:10071000C506C151DE4F88838091A9018F5F809308
:10072000A901813081F51092210110922001809160
:10073000EF018F3539F481E090E090930D028093C2
:100740000C02B4C01092A90181E080930F02809145
:10075000EF018C3A81F41092AA01E091AB01F0E034
:10076000EE0FFF1FEE0FFF1FEE0FFF1FE050FF4FBA
:1007700081E087839BC08091EF018A3209F096C0A7
:100780000E94650393C0823079F4E091AE01F0E0FD
:100790008091F001EE0FFF1FEE0FFF1FEE0FFF1F06
:1007A000E155FE4F818382C0E091AE01F0E0EE0F93
:1007B000FF1FEE0FFF1FEE0FFF1FE155FE4F918150
:1007C000891374C010920D0210920C02E091AE01D8
:1007D000F0E0EE0FFF1FEE0FFF1FEE0FFF1FE155C2
:1007E000FE4FE181F0E0E251FE4F80818F3E09F043
:1007F00055C0E091AE01F0E08091F101EE0FFF1FD6
:10080000EE0FFF1FEE0FFF1FE155FE4F8083E091BB
:10081000AE01F0E0EE0FFF1FEE0FFF1FEE0FFF1F08
:10082000E155FE4F818190E00497181619065CF59A
:1008300020E030E040E08091AE01E82FF0E0D90107
:10084000AE50BE4F8C91EE0FFF1FEE0FFF1FEE0F4D
:10085000FF1FE155FE4FE20FF31F82834F5F242FEE
:1008600030E0A091AE01B0E0AA0FBB1FAA0FBB1FE2
:10087000AA0FBB1FA155BE4F11968C9190E0049713
:1008800028173907C4F28091AE018F5F877090916D
:10089000AD01891749F08093AE0106C08AE20E943B
:1008A000EB0681E080930F021092A901DF91CF91B6
:1008B0000895811103C05E985D9A08955E9A5D98CF
:1008C00008958AB180668AB981E00E945904E1ECFA
:1008D000F0E0808180648083089580E00E94590464
:1008E0000E94000708951F920F920FB60F921124D5
:1008F0002F933F934F935F936F937F938F939F9328
:10090000AF93BF93EF93FF9381E00E945904FF914F
:10091000EF91BF91AF919F918F917F916F915F9177
:100920004F913F912F910F900FBE0F901F901895F0
:10093000CF93DF93D62FC42F8062880F0E94370198
:100940008D2F0E9467018C2F0E9467010E945E011B
:10095000DF91CF910895CF93DF93D62F8062C82F78
:10096000CC0F8C2F0E9437018D2F0E9467010E94AF
:100970005E018C2F81600E9437010E947901DF9116
:10098000CF910895E62FF0E0EE5DFE4F908141118A
:100990009068811106C0492F65E181E00E949804AA
:1009A0000895813029F4492F64E10E949804089544
:1009B000823029F4492F65E10E949804089583301C
:1009C00029F4492F64E182E00E9498040895AF92CF
:1009D000CF92EF920F931F93CF93DF93C82FD62F11
:1009E000142F4A2D622F80E00E94C2044C2D612FEB
:1009F00081E00E94C2044E2D6D2F82E00E94C2044D
:100A0000402F6C2F83E00E94C204DF91CF911F9191
:100A10000F91EF90CF90AF900895AF92CF92EF9259
:100A20000F93CF93DF931F92CDB7DEB769838330E7
:100A300041F4AE014F5F5F4F61E081EB0E947002B5
:100A400028C0863041F4AE014F5F5F4F61E082EB1A
:100A50000E9470021EC08730E1F4AE014F5F5F4F0D
:100A600061E084EB0E94700280911102833089F072
:100A700080911102823019F489818F7051F4A12C78
:100A8000C12CE12C00E022E74EE665E784E50E94F8
:100A9000E7040F90DF91CF910F91EF90CF90AF903F
:100AA0000895AF92CF92EF920F93CF93DF93853D4E
:100AB000F1F4613009F049C0FA018081843029F4F1
:100AC00081E0809311028CEA49C0863029F482E0EB
:100AD000809311028CEA42C0883029F483E080932D
:100AE00011028CEA3BC0109211028CEA37C0EA0175
:100AF000873D71F4643059F5A12CC12CE12C00E044
:100B00002B814A81698188810E94E7048CEA26C092
:100B1000803D49F46130E9F4488164E180E00E945D
:100B200098048CEA1BC0833DB1F46230B1F4488173
:100B300064E184E00E9498048981882319F0289A4E
:100B40008CEA0CC028988CEA09C08AE207C08AE2C5
:100B500005C08AE203C08AE201C08AE2DF91CF9138
:100B60000F91EF90CF90AF90089584B5826084BDCF
:100B700016BC8CE787BDEEE6F0E080818260808362
:100B800085B5846085BD08951F920F920FB60F92B0
:100B900011242F938F939F9380910F02882361F0EC
:100BA00080910F028F5F80930F02833028F01092A4
:100BB0000F0281E080931002809120019091210129
:100BC000892B99F0809120019091210101969093B9
:100BD000210180932001419740F081E090E09093C3
:100BE00021018093200180930E0280910C0290914C
:100BF0000D02892B91F080910C0290910D020196CB
:100C000090930D0280930C02069738F010920D021B
:100C100010920C0281E080930B028091A3019091CD
:100C2000A401892B09F443C08091A3019091A401F0
:100C300001969093A4018093A3018091A3019091C8
:100C4000A401813B9440B0F08091A801843091F4DC
:100C50000AC08091A8018230E1F414C08091A801FB
:100C6000813029F51EC081E08093A20185E0809348
:100C7000A8011DC08091A3019091A40189359240E3
:100C800040F707C084E08093A80181E08093A2012F
:100C90000EC08091A3019091A4018D389105F0F6CA
:100CA00006C082E08093A80181E08093A2019F9119
:100CB0008F912F910F900FBE0F901F901895CF938B
:100CC000DF93D62FC42F519A599A10921602109280
:100CD00015021092140210921302A0E0B0E0880FE7
:100CE000991FAA1FBB1F880F991FAA1FBB1F9C011A
:100CF000AD01220F331F441F551F220F331F441F06
:100D0000551F60E074E284EF90E00E946307215079
:100D100031093093C5002093C400E2ECF0E08081FB
:100D20008F738083D23021F480818860808305C0F6
:100D3000E2ECF0E08081877F8083C23049F4E2EC0E
:100D4000F0E080818F7E80838081806280830DC00F
:100D5000C33031F4E2ECF0E080818063808305C031
:100D6000E2ECF0E080818F7C8083E2ECF0E0808137
:100D700086608083E1ECF0E08081806A80838081FE
:100D800088618083DF91CF910895909114028091C2
:100D90001302981791F0E0911302EF5FEF73E09365
:100DA0001302F0E0E95EFD4F20818091120290E095
:100DB000982F8827820F911D089580E091E0089573
:100DC000309114022091130281E090E0321302C0AE
:100DD00080E090E00895909116029F5F9F732091AC
:100DE0001502921751F0E92FF0E0E95AFD4F808388
:100DF0009093160281E090E0089580E090E00895DD
:100E0000E1ECF0E0808180628083089520911602F9
:100E10009091150281E0291380E008951F920F92AE
:100E20000FB60F9211242F938F939F93EF93FF93FD
:100E30008091C0002091C6008770E0911402EF5F9E
:100E4000EF7390911302E91739F0E0931402F0E088
:100E5000E95EFD4F208301C082E080931202FF9182
:100E6000EF919F918F912F910F900FBE0F901F9038
:100E700018951F920F920FB60F9211248F939F9384
:100E8000EF93FF939091160280911502981769F0E5
:100E9000E0911502EF5FEF73E0931502F0E0E95A7D
:100EA000FD4F80818093C60005C0E1ECF0E08081B9
:100EB0008F7D8083FF91EF919F918F910F900FBE57
:100EC0000F901F901895A1E21A2EAA1BBB1BFD01C3
:100ED0000DC0AA1FBB1FEE1FFF1FA217B307E40719
:100EE000F50720F0A21BB30BE40BF50B661F771F71
:100EF000881F991F1A9469F7609570958095909551
:0E0F00009B01AC01BD01CF010895F894FFCF15
:100F0E0000000000000000010000000000000000D2
:100F1E0000000000000000000000000000000000C3
:100F2E000100FFFFFFFFFFFFFFFFFFFFFFFFFFFFC0
:100F3E00FFFFFFFFFFFFFFFFFFFFFFFFFFFFFFFFB3
:100F4E00FFFFFFFFDDFFFFFFFFFFC6F0FFFFFFBF4D
:100F5E00FFADC0F9A4B0999282F88090FFFFFFFF19
:100F6E00FFFFFF8883C6A1868EC289F9E18AC7EA90
:100F7E00ABC08C98AFD287C1C1D58991E4C69BF026
:100F8E00FEF7FF8883A7A1868EC28BFBE18AC7EA94
:100F9E00ABA38C98AFD287E3E3C18991E4FFFFFF47
:020FAE00FFFF43
:00000001FF
