:100000000C943F000C9467000C9467000C947605E8
:100010000C9467000C9455050C9467000C946700D1
:100020000C9467000C9467000C9467000C946700B4
:100030000C9467000C9467000C9467000C946700A4
:100040000C946A060C9467000C9467000C9467008B
:100050000C94B2070C94DD070C9413050C94670004
:100060000C9467000C9467000C9467000C94670074
:100070000C9492080C94BD080C9467007309112429
:100080001FBECFEFD8E0DEBFCDBF11E0A0E0B1E0F2
:10009000EAE4F4E102C005900D92AA32B107D9F763
:1000A00022E0AAE2B1E001C01D92A238B207E1F756
:1000B00010E0CFE3D0E004C02197FE010E94F809D0
:1000C000CE33D107C9F70E9441010C94230A0C9446
:1000D00000000895823B51F0843B71F0813B91F424
:1000E00081E090E00E9407068CEA089582E090E0AB
:1000F0000E9407068CEA089583E090E00E940706BC
:100100008CEA08958AE20895EF920F938091B101ED
:10011000823059F018F4813049F159C0833009F424
:1001200045C0863009F44BC052C080912A01873007
:1001300008F04DC080912A0190E0880F991F880F28
:10014000991F8A5A9D4F0E94210280912A018F5F38
:1001500080932A0180912A0190E0880F991F880FCF
:10016000991F8A5A9D4F0E94E40131C080912A0153
:10017000882369F180912A0190E0880F991F880FE8
:10018000991F8A5A9D4F0E94210280912A01815015
:1001900080932A0180912A0190E0880F991F880F8F
:1001A000991F8A5A9D4F0E94E40111C0E12C00E082
:1001B00020E042E768E683E70E94EA0508C0E12CF8
:1001C00000E020E04EE66FE68CE60E94EA05109221
:1001D000B1010E944C050F91EF9008951092B90063
:1001E0008CE58093B800089594EA9093BC00ECEB02
:1001F000F0E090819923ECF79091B900987F9830C6
:1002000011F09031A1F48093BB0084E88093BC008E
:10021000ECEBF0E080818823ECF79091B900987FB7
:10022000983139F081E0903429F480E0089581E03C
:10023000089580E0089584E98093BC00ECEBF0E041
:10024000808184FDFDCF08958093BB0084E8809376
:10025000BC00ECEBF0E080818823ECF79091B900D2
:10026000987F81E0983209F480E0089584E88093D3
:10027000BC00ECEBF0E080818823ECF78091BB00C0
:1002800008950E944C060E94EE0040E062E080E08B
:100290009BE40E94090740E061E082E19AE70E9446
:1002A00007080E9438050E943F060E94E7080E9446
:1002B000AB0278940E948508892B11F00E94BE023F
:1002C00080913101882321F0109231010E94690050
:1002D0000E948A07892B19F00E941D03F9CF0E9402
:1002E000F90281110E94DF030E94020381110E9422
:1002F000690480913C01882321F010923C010E9406
:100300000D0580913A01882389F010923A0180917D
:100310003901882319F01092390108C00E940B039B
:1003200040E050E060E08BEE0E9410048091B1014B
:10033000882341F08091B101843021F08091B10196
:100340008530A1F48091B501882321F01092B50188
:100350000E94940580912D01882329F010922D018F
:1003600080E00E948C020E944906A4CF0E94840073
:10037000E9CFCF93DF93D62FC42F8062880F0E94DE
:10038000F4008D2F0E9424018C2F0E9424010E94D2
:100390001B01DF91CF910895CF93DF93D62F806219
:1003A000C82FCC0F8C2F0E94F4008D2F0E942401A7
:1003B0000E941B018C2F81600E94F4000E94360174
:1003C000DF91CF91089508951F93CF93DF93EC01B0
:1003D0008981811110C020912C0181E090E00A8078
:1003E00002C0880F991F0A94E2F7809582238093B8
:1003F0002C0114E10FC020912B0181E090E00A80D4
:1004000002C0880F991F0A94E2F780958223809397
:100410002B0115E1612F88810E94CC0141E050E061
:100420000A8002C0440F551F0A94E2F7482B612F3F
:1004300088810E94B90181E08B83DF91CF911F9168
:1004400008951F93CF93DF93EC018981811110C030
:1004500020912C0181E090E00A8002C0880F991F52
:100460000A94E2F78095822380932C0114E10FC057
:1004700020912B0181E090E00A8002C0880F991F33
:100480000A94E2F78095822380932B0115E1612F76
:1004900088810E94CC0141E050E00A8002C0440FF4
:1004A000551F0A94E2F740954823612F88810E94E6
:1004B000B9011B82DF91CF911F9108951F93CF93B4
:1004C000DF93EC01862F688349832A8311E0411171
:1004D00001C010E0612F0E94CC0141E050E00A8091
:1004E00002C0440F551F0A94E2F740954823612F3C
:1004F00088810E94B901CE010E942102DF91CF9133
:100500001F910895BC0180E090E00E945B0670930B
:1005100001016093000108951F93CF93DF93C82FCB
:1005200064E10E94CC01182F65E18C2F0E94CC0160
:1005300040912C01D0912B01D827412764E18C2FC9
:100540000E94B9014D2F65E18C2F0E94B901DF9106
:10055000CF911F91089580E090E00E940D0A809352
:10056000360180913601813140F010923601609160
:10057000360180E090E00E94150A0895CF93DF9342
:10058000C0913001D0E00E946A08CD5CDE4F8883C4
:1005900080913001811118C080913301807F803CAF
:1005A00029F580913601882359F0209133018091FB
:1005B00036012F7030E090E0019728173907B1F02D
:1005C00081E08093300112C090E0FC01ED5CFE4FB1
:1005D000208122234CF0FC01ED5CFE4F8081809352
:1005E000320181E08093310110923001DF91CF918F
:1005F00008952091400190913F0181E0291301C0AD
:1006000080E0089520913E0190913D0181E0291301
:1006100001C080E0089580913E0180933D01E0910A
:100620003E01F0E0EE0FFF1FEE0FFF1FEE0FFF1F6A
:10063000EF5BFE4F81E087830895CF93DF9381E0E6
:1006400080933B01C0913701D0E00E946F07CF55E6
:10065000DE4F8883809137018F5F8093370181302F
:1006600009F047C08091A1018F3509F4A5C010920F
:1006700037018091A1018C3AF9F481E090E09093E8
:1006800003018093020110923801E0913D01F0E0F6
:10069000EE0FFF1FEE0FFF1FEE0FFF1FEF5BFE4F72
:1006A000878380913901811187C081E0809339016E
:1006B00082E08093BB0180C08091A1018A3209F061
:1006C0007BC0809138018F5F80933801843008F0BF
:1006D00073C0E0913D01F0E0EE0FFF1FEE0FFF1F32
:1006E000EE0FFF1FEF5BFE4F168281E080933B0110
:1006F00063C0823079F4E0914001F0E08091A20182
:10070000EE0FFF1FEE0FFF1FEE0FFF1FEF57FE4F05
:10071000818352C0E0914001F0E0EE0FFF1FEE0F29
:10072000FF1FEE0FFF1FEF57FE4F9181891344C04B
:10073000E0914001F0E0EE0FFF1FEE0FFF1FEE0F04
:10074000FF1FEF57FE4FE181F0E0E056FE4F808142
:100750008F3E51F5E0914001F0E0A1EAB1E0129640
:100760008C911297EE0FFF1FEE0FFF1FEE0FFF1F72
:10077000EF57FE4F8083E0914001F0E013968C919B
:10078000EE0FFF1FEE0FFF1FEE0FFF1FEF57FE4F85
:100790008283809140018F5F837090913F01891720
:1007A00049F08093400106C08AE20E94970781E0E9
:1007B00080933B0110923701DF91CF9108954091D2
:1007C0003F01E0913F01F0E0EE0FFF1FEE0FFF1F32
:1007D000EE0FFF1FEF57FE4F6181E0913F01F0E008
:1007E000EE0FFF1FEE0FFF1FEE0FFF1FEF57FE4F25
:1007F000808150E0440F551F440F551F440F551F73
:100800004D575E4F0E946A0090913F019F5F937029
:1008100090933F010E94970781E080933B010895E8
:1008200020913E012F5F277090913D01291709F417
:100830004EC0E0913E01F0E0EE0FFF1FEE0FFF1FF4
:10084000EE0FFF1FEF5BFE4F8083E0913E01F0E073
:10085000EE0FFF1FEE0FFF1FEE0FFF1FEF5BFE4FB0
:1008600084E0860F8183E0913E01F0E0EE0FFF1FF0
:10087000EE0FFF1FEE0FFF1FEF5BFE4F1682E091A2
:100880003E01F0E0EE0FFF1FEE0FFF1FEE0FFF1F08
:10089000EF5BFE4F17826623B1F0A42FB52F80E0E7
:1008A00090E0E0913E01F0E03D91EE0FFF1FEE0F72
:1008B000FF1FEE0FFF1FEF5BFE4FE80FF91F3283A4
:1008C0000196861770F320933E0181E0089580E041
:1008D0000895CF93E0913D01F0E0EE0FFF1FEE0F82
:1008E000FF1FEE0FFF1FEF5BFE4F8781882339F05C
:1008F00080913D018F5F877080933D0184C0E091BE
:100900003D01F0E0EE0FFF1FEE0FFF1FEE0FFF1F88
:10091000EF5BFE4F8681811176C08FE50E949707BD
:10092000E0913D01F0E0EE0FFF1FEE0FFF1FEE0F15
:10093000FF1FEF5BFE4F81810E949707E0913D0111
:10094000F0E0EE0FFF1FEE0FFF1FEE0FFF1FEF5B3C
:10095000FE4F80810E949707E0913D01F0E0EE0F8D
:10096000FF1FEE0FFF1FEE0FFF1FEF5BFE4F81819A
:1009700090E00497181619064CF520E030E0C0E02E
:1009800080913D01E82FF0E0EE0FFF1FEE0FFF1FFB
:10099000EE0FFF1FEF5BFE4FE20FF31F82810E94FD
:1009A0009707CF5F2C2F30E0A0913D01B0E0AA0F58
:1009B000BB1FAA0FBB1FAA0FBB1FAF5BBE4F119679
:1009C0008C9190E0049728173907D4F28FEE0E949B
:1009D000970780913B01811103C081E080933C0126
:1009E000E0913D01F0E0EE0FFF1FEE0FFF1FEE0F55
:1009F000FF1FEF5BFE4F81E0868381E090E09093E4
:100A0000030180930201CF910895813019F42B984E
:100A10002C9A08952C982B9A089581E00E94050540
:100A20000E94AC0708951F920F920FB60F921124E7
:100A30002F933F934F935F936F937F938F939F93E6
:100A4000AF93BF93EF93FF9380E00E940505FF9162
:100A5000EF91BF91AF919F918F917F916F915F9136
:100A60004F913F912F910F900FBE0F901F901895AF
:100A700084B1887F84B9ECE6F0E080818160808376
:100A8000E8E6F0E0808182608083E9E6F0E0808142
:100A900080638083EA9A0895E29AD99AEA9AE8E60E
:100AA000F0E080818260808308951F920F920FB6DC
:100AB0000F9211248F93EF93FF93189B0FC0EA9826
:100AC000E8E6F0E080818D7F8083199B04C081E09F
:100AD0008093B10103C082E08093B101FF91EF9157
:100AE0008F910F900FBE0F901F9018951F920F922D
:100AF0000FB60F9211248F939F93EF93FF9381E092
:100B000090E09093B3018093B201EA98E8E6F0E0B8
:100B100080818D7F8083FF91EF919F918F910F90C6
:100B20000FBE0F901F9018958091B7018F5F809333
:100B3000B701833010F01092B7019091B7019B5F1D
:100B400081E001C0880F9A95EAF78093B40185B1DE
:100B5000806E85B995B18091B4018095892385B95E
:100B6000E091B701F0E0E854FE4F808182B908952A
:100B7000E0EDE60FEA30A8F09FEB960F9A3118F4FB
:100B8000E9ECE60F0EC09FE9960F9A3118F4E9EAF6
:100B9000E60F07C06D3221F06032D9F4E5E201C002
:100BA000E4E290E0F0E0EC5FFE4F2081FC01E854CD
:100BB000FE4F2083442339F0FC01E854FE4F80812E
:100BC0008F7780830895FC01E854FE4F8081806810
:100BD00080830895EF920F931F93CF93DF93C82FD5
:100BE000162F642FD22F4E2D80E00E94B805402F83
:100BF000612F81E00E94B8054D2F6C2F82E00E948A
:100C0000B805DF91CF911F910F91EF900895CF9389
:100C1000DF939C012D593F4F2B34344068F5EC0194
:100C2000992354F440E06DE282E00E94B8058827E1
:100C300099278C1B9D0B0EC064E670E00E94A309EF
:100C4000D82FC92F605D7F4F40E082E00E94B80539
:100C50008D2F9C2F6AE070E00E94A309EC01605D7B
:100C60007F4F40E081E00E94B805BE01605D7F4F8C
:100C700040E080E00E94B805DF91CF91089584B1F3
:100C8000806E84B98FEF81B98BE790E00E940706F0
:100C900008958091BB01089584B5826084BD16BC1F
:100CA0008BE987BDEEE6F0E080818260808385B5C8
:100CB000846085BD08959B01AC01A8EEB3E00E945D
:100CC000D9092DEC37E040E050E00E94B709CA0195
:100CD000B90108951F920F920FB60F9211242F930E
:100CE0003F938F939F9380913B01882361F0809184
:100CF0003B018F5F80933B01843028F010923B01D1
:100D000081E080933C018091020190910301019662
:100D10009093030180930201893E934040F081E06B
:100D200090E0909303018093020180933A018091B7
:100D3000B6018F5F8093B601833028F01092B60120
:100D400081E08093B50180912E0190912F01019651
:100D500090932F0180932E01209100013091010189
:100D60002817390778F410922F0110922E018091E4
:100D70002C01811104C080912B01882319F081E09E
:100D800080932D018091B2019091B301892BC1F123
:100D90008091B2019091B30101969093B301809339
:100DA000B2018091B2019091B3018935924070F007
:100DB0001A9B04C086E08093B10103C085E0809354
:100DC000B1011092B3011092B2011AC08091B20128
:100DD0009091B301CD97A0F08091B101882369F083
:100DE0000FC083E08093B1011092B3011092B20161
:100DF00007C084E08093B10103C01A99FACFF1CF04
:100E00009F918F913F912F910F900FBE0F901F9048
:100E10001895CF93DF93D62FC42F519A599A1092D9
:100E20000502109204021092030210920202A0E046
:100E3000B0E0880F991FAA1FBB1F880F991FAA1F18
:100E4000BB1F9C01AD01220F331F441F551F220FF2
:100E5000331F441F551F60E07DE281E391E00E9453
:100E6000B709215031093093C5002093C400E2EC4A
:100E7000F0E080818F738083D23021F4808188609C
:100E8000808305C0E2ECF0E08081877F8083C23000
:100E900049F4E2ECF0E080818F7E80838081806283
:100EA00080830DC0C33031F4E2ECF0E080818063D8
:100EB000808305C0E2ECF0E080818F7C8083E2ECEF
:100EC000F0E0808186608083E1ECF0E08081806AE0
:100ED0008083808188618083DF91CF910895909194
:100EE000030280910202981791F0E0910202EF5FF5
:100EF000EF71E0930202F0E0EA5FFD4F2081809104
:100F0000010290E0982F8827820F911D089580E0BC
:100F100091E00895809103022091020290E04F96A3
:100F2000821B91096FE170E00E94A30908959091DE
:100F300005029F5F9F7120910402921751F0E92FE3
:100F4000F0E0EA5DFD4F80839093050281E090E040
:100F5000089580E090E00895E1ECF0E08081806207
:100F6000808308951F920F920FB60F9211242F9332
:100F70008F939F93EF93FF938091C0002091C600C1
:100F80008770E0910302EF5FEF7190910202E91721
:100F900039F0E0930302F0E0EA5FFD4F208301C0E7
:100FA00082E080930102FF91EF919F918F912F91A9
:100FB0000F900FBE0F901F9018951F920F920FB6B3
:100FC0000F9211248F939F93EF93FF9390910502BB
:100FD00080910402981769F0E0910402EF5FEF71CD
:100FE000E0930402F0E0EA5DFD4F80818093C6004B
:100FF00005C0E1ECF0E080818F7D8083FF91EF916F
:101000009F918F910F900FBE0F901F901895CF93C7
:10101000DF93D62FC42F539A5B9A1092C00110927F
:10102000BF011092BE011092BD01A0E0B0E0880F98
:10103000991FAA1FBB1F880F991FAA1FBB1F9C01C6
:10104000AD01220F331F441F551F220F331F441FB2
:10105000551F60E07DE281E391E00E94B7092150D5
:1010600031093093CD002093CC00EAECF0E0808190
:101070008F738083D23021F480818860808305C0A3
:10108000EAECF0E08081877F8083C23031F4EAECC3
:10109000F0E08081806280830DC0C33031F4EAECDF
:1010A000F0E080818063808305C0EAECF0E080811D
:1010B0008F7C8083EAECF0E0808186608083E9ECBD
:1010C000F0E08081806A8083808188618083DF9105
:1010D000CF9108959091BE018091BD01981791F034
:1010E000E091BD01EF5FEF71E093BD01F0E0EF53E0
:1010F000FE4F20818091BC0190E0982F8827820FBD
:10110000911D089580E091E008958091BE012091A5
:10111000BD0190E04F96821B91096FE170E00E9443
:10112000A30908951F920F920FB60F9211242F93C7
:101130008F939F93EF93FF938091C8002091CE00EF
:101140008770E091BE01EF5FEF719091BD01E917EB
:1011500039F0E093BE01F0E0EF53FE4F208301C071
:1011600082E08093BC01FF91EF919F918F912F912D
:101170000F900FBE0F901F9018951F920F920FB6F1
:101180000F9211248F939F93EF93FF939091C0013F
:101190008091BF01981769F0E091BF01EF5FEF7197
:1011A000E093BF01F0E0EF51FE4F80818093CE00CD
:1011B00005C0E9ECF0E080818F7D8083FF91EF91A5
:1011C0009F918F910F900FBE0F901F901895EF92E7
:1011D000FF921F93CF93DF93CDB7DEB764970FB61F
:1011E000F894DEBF0FBECDBF25E041E060E0CE0148
:1011F00041960E945E0289899A89AB89BC89809355
:101200007E0290937F02A0938002B093810226E039
:1012100041E060E0CE010D960E945E028D859E85C4
:10122000AF85B88980937A0290937B02A0937C0269
:10123000B0937D0227E041E060E0CE0109960E9474
:101240005E0289859A85AB85BC85809376029093F2
:101250007702A0937802B09379020F2EF6E5EF2E75
:10126000F2E0FF2EF02D10E0212F40E060E0CE01F3
:1012700005960E945E028D819E81AF81B885F7013F
:1012800081939193A193B1937F011F5F183061F710
:101290000F2EF6E4EF2EF2E0FF2EF02D10E0212FBE
:1012A00041E060E0CE0101960E945E0289819A8150
:1012B000AB81BC81F70181939193A193B1937F019D
:1012C0001F5F143061F780E991E00E94820264960A
:1012D0000FB6F894DEBF0FBECDBFDF91CF911F9147
:1012E000FF90EF9008950F931F93CF93DF938EE7B6
:1012F00092E00E94E3018AE792E00E94E30186E720
:1013000092E00E94E301C6E5D2E006E712E0CE01DA
:101310000E94E3012496C017D107C9F786E492E042
:101320000E94E3018AE492E00E94E3018EE492E0ED
:101330000E94E30182E592E00E94E301DF91CF91F8
:101340001F910F91089597FB072E16F4009407D074
:1013500077FD09D00E94E40907FC05D03EF4909582
:1013600081959F4F0895709561957F4F0895A1E2F3
:101370001A2EAA1BBB1BFD010DC0AA1FBB1FEE1F0F
:10138000FF1FA217B307E407F50720F0A21BB30B5A
:10139000E40BF50B661F771F881F991F1A9469F7D6
:1013A00060957095809590959B01AC01BD01CF0132
:1013B00008950E94FE09A59F900DB49F900DA49FD3
:1013C000800D911D11240895AA1BBB1B51E107C07C
:1013D000AA1FBB1FA617B70710F0A61BB70B881FC5
:1013E000991F5A95A9F780959095BC01CD01089554
:1013F000EE0FFF1F0590F491E02D0994A29FB0011C
:10140000B39FC001A39F700D811D1124911DB29F38
:10141000700D811D1124911D0895F999FECF92BD83
:1014200081BDF89A992780B50895262FF999FECFA6
:101430001FBA92BD81BD20BD0FB6F894FA9AF99AF1
:0A1440000FBE01960895F894FFCF47
:10144A0064000100C0F9A4B0999282F88090888360
:10145A00C6A1868EC28BFBE18AC7EAABA38C98AF82
:0A146A00D287E3E3C1EB91E4BFFF7A
:00000001FF
