S02200005261636B5F4C6F6F70436F6E74726F6C6C65725F4D41535445522E7372656339
S11300000C943F000C9467000C9467000C94EE046D
S11300100C9467000C94CD040C9467000C94670056
S11300200C9467000C9467000C9467000C946700B0
S11300300C9467000C9467000C9467000C946700A0
S11300400C94DF050C9467000C9467000C94670013
S11300500C943A070C9465070C948B040C94670079
S11300600C9467000C9467000C9467000C94670070
S11300700C941A080C9445080C946700FB0811248E
S11300801FBECFEFD8E0DEBFCDBF11E0A0E0B1E0EE
S1130090EAE5F3E102C005900D92A832B107D9F761
S11300A022E0A8E2B1E001C01D92AF37B207E1F748
S11300B010E0CFE3D0E004C02197FE010E94800944
S11300C0CE33D107C9F70E9441010C94AB090C94BB
S11300D000000895823B51F0843B71F0813B91F420
S11300E081E090E00E947F058CEA089582E090E030
S11300F00E947F058CEA089583E090E00E947F05CA
S11301008CEA08958AE20895EF920F938091AF01EB
S1130110823059F018F4813049F159C0833009F420
S113012045C0863009F44BC052C080912801873005
S113013008F04DC08091280190E0880F991F880F26
S1130140991F8D5A9D4F0E940B02809128018F5F49
S1130150809328018091280190E0880F991F880FCF
S1130160991F8D5A9D4F0E94CE0131C08091280164
S1130170882369F18091280190E0880F991F880FE6
S1130180991F8D5A9D4F0E940B0280912801815026
S1130190809328018091280190E0880F991F880F8F
S11301A0991F8D5A9D4F0E94CE0111C0E12C00E091
S11301B020E042E768E683E70E94620508C0E12C7C
S11301C000E020E04EE66FE68CE60E9462051092A5
S11301D0AF010E94C4040F91EF9008951092B900EA
S11301E08CE58093B800089594EA9093BC00ECEBFE
S11301F0F0E090819923ECF79091B900987F9830C2
S113020011F09031A1F48093BB0084E88093BC008A
S1130210ECEBF0E080818823ECF79091B900987FB3
S1130220983139F081E0903429F480E0089581E038
S1130230089580E0089584E98093BC00ECEBF0E03D
S1130240808184FDFDCF08958093BB0084E8809372
S1130250BC00ECEBF0E080818823ECF79091B900CE
S1130260987F81E0983209F480E0089584E88093CF
S1130270BC00ECEBF0E080818823ECF78091BB00BC
S113028008950E94C1050E94EE0040E062E080E013
S11302909BE40E94910640E061E082E19AE70E94BB
S11302A08F070E94B0040E94B7050E946F080E9445
S11302B0950278940E940D08892B11F00E94A802DF
S11302C080912F01882321F010922F010E94690050
S11302D00E941207892B19F00E94FA02F9CF0E949A
S11302E0E30281110E94B0030E94EC0281110E947A
S11302F0E10380913A01882321F010923A010E948F
S113030085048091AF01882341F08091AF0184304E
S113031021F08091AF01853099F48091B301882355
S113032021F01092B3010E940C0580912B018823C7
S113033009F4C0CF10922B0180E00E947602BACF5C
S11303400E948400EACFCF93DF93D62FC42F80621C
S1130350880F0E94F4008D2F0E9424018C2F0E948C
S113036024010E941B01DF91CF910895CF93DF9365
S1130370D62F8062C82FCC0F8C2F0E94F4008D2FB3
S11303800E9424010E941B018C2F81600E94F400B2
S11303900E943601DF91CF91089508951F93CF9362
S11303A0DF93EC018981811110C020912A0181E041
S11303B090E00A8002C0880F991F0A94E2F78095A2
S11303C0822380932A0114E10FC02091290181E046
S11303D090E00A8002C0880F991F0A94E2F7809582
S11303E082238093290115E1612F88810E94B6013F
S11303F041E050E00A8002C0440F551F0A94E2F71E
S1130400482B612F88810E94A30181E08B83DF91B7
S1130410CF911F9108951F93CF93DF93EC018981AE
S1130420811110C020912A0181E090E00A8002C06D
S1130430880F991F0A94E2F78095822380932A01FA
S113044014E10FC02091290181E090E00A8002C0EC
S1130450880F991F0A94E2F78095822380932901DB
S113046015E1612F88810E94B60141E050E00A80C5
S113047002C0440F551F0A94E2F740954823612FA8
S113048088810E94A3011B82DF91CF911F9108955F
S11304901F93CF93DF93EC01862F688349832A83CC
S11304A011E0411101C010E0612F0E94B60141E04A
S11304B050E00A8002C0440F551F0A94E2F74095A9
S11304C04823612F88810E94A301CE010E940B0260
S11304D0DF91CF911F910895BC0180E090E00E94CC
S11304E0D005709301016093000108951F93CF9389
S11304F0DF93C82F64E10E94B601182F65E18C2FA9
S11305000E94B60140912A01D0912901D8274127A0
S113051064E18C2F0E94A3014D2F65E18C2F0E9472
S1130520A301DF91CF911F91089580E090E00E9494
S113053095098093340180913401813140F0109207
S113054034016091340180E090E00E949D09089597
S1130550CF93DF93C0912E01D0E00E94F207CF5CCD
S1130560DE4F888380912E01811118C08091310162
S1130570807F803C29F580913401882359F02091B3
S11305803101809134012F7030E090E001972817F9
S11305903907B1F081E080932E0112C090E0FC0194
S11305A0EF5CFE4F208122234CF0FC01EF5CFE4FF8
S11305B080818093300181E080932F0110922E017D
S11305C0DF91CF91089520913E0190913D0181E00A
S11305D0291301C080E0089520913C0190913B01D2
S11305E081E0291301C080E0089580913C0180934B
S11305F03B010895CF93DF9381E080933901C0914B
S11306003501D0E00E94F706C156DE4F8883809101
S113061035018F5F809335018130E1F580919F0131
S11306208F3509F49AC01092350180919F018C3A5C
S1130630A1F4109238011092370110923601E09122
S11306403B01F0E0EE0FFF1FEE0FFF1FEE0FFF1F49
S1130650E15CFE4F81E0878380C080919F018A32F4
S113066009F07BC0809136018F5F8093360184301E
S113067008F073C0E0913B01F0E0EE0FFF1FEE0FB6
S1130680FF1FEE0FFF1FE15CFE4F168281E0809397
S1130690390163C0823079F4E0913E01F0E0809149
S11306A0A001EE0FFF1FEE0FFF1FEE0FFF1FE1581B
S11306B0FE4F818352C0E0913E01F0E0EE0FFF1F38
S11306C0EE0FFF1FEE0FFF1FE158FE4F91818913BC
S11306D044C0E0913E01F0E0EE0FFF1FEE0FFF1F5C
S11306E0EE0FFF1FE158FE4FE181F0E0E256FE4FAE
S11306F080818F3E51F5E0913E01F0E0AFE9B1E039
S113070012968C911297EE0FFF1FEE0FFF1FEE0F44
S1130710FF1FE158FE4F8083E0913E01F0E0139605
S11307208C91EE0FFF1FEE0FFF1FEE0FFF1FE1581E
S1130730FE4F828380913E018F5F837090913D01D3
S1130740891749F080933E0106C08AE20E941F0780
S113075081E08093390110923501DF91CF910895A2
S113076040913D01E0913D01F0E0EE0FFF1FEE0FDF
S1130770FF1FEE0FFF1FE158FE4F6181E0913D0125
S1130780F0E0EE0FFF1FEE0FFF1FEE0FFF1FE1580B
S1130790FE4F808150E0440F551F440F551F440FF6
S11307A0551F4F575E4F0E946A0090913D019F5F15
S11307B0937090933D010E941F0781E0809339015B
S11307C00895CF93E0913B01F0E0EE0FFF1FEE0F91
S11307D0FF1FEE0FFF1FE15CFE4F8781882339F076
S11307E080913B018F5F877080933B0184C0E091CF
S11307F03B01F0E0EE0FFF1FEE0FFF1FEE0FFF1F98
S1130800E15CFE4F8681811176C08FE50E941F074F
S1130810E0913B01F0E0EE0FFF1FEE0FFF1FEE0F24
S1130820FF1FE15CFE4F81810E941F07E0913B01A5
S1130830F0E0EE0FFF1FEE0FFF1FEE0FFF1FE15C56
S1130840FE4F80810E941F07E0913B01F0E0EE0F14
S1130850FF1FEE0FFF1FEE0FFF1FE15CFE4F8181B4
S113086090E00497181619064CF520E030E0C0E03B
S113087080913B01E82FF0E0EE0FFF1FEE0FFF1F0A
S1130880EE0FFF1FE15CFE4FE20FF31F82810E9417
S11308901F07CF5F2C2F30E0A0913B01B0E0AA0FDF
S11308A0BB1FAA0FBB1FAA0FBB1FA15CBE4F119693
S11308B08C9190E0049728173907D4F28FEE0E94A8
S11308C01F0780913901811103C081E080933A01AF
S11308D0E0913B01F0E0EE0FFF1FEE0FFF1FEE0F64
S11308E0FF1FE15CFE4F81E0868381E090E09093FE
S11308F0380180933701CF910895813019F42B98F2
S11309002C9A08952C982B9A089581E00E947D04D6
S11309100E94340708951F920F920FB60F9211246C
S11309202F933F934F935F936F937F938F939F93F3
S1130930AF93BF93EF93FF9380E00E947D04FF91F8
S1130940EF91BF91AF919F918F917F916F915F9143
S11309504F913F912F910F900FBE0F901F901895BC
S113096084B1887F84B9ECE6F0E080818160808383
S1130970E8E6F0E0808182608083E9E6F0E080814F
S113098080638083EA9A0895E29AD99AEA9AE8E61B
S1130990F0E080818260808308951F920F920FB6E9
S11309A00F9211248F93EF93FF93189B0FC0EA9833
S11309B0E8E6F0E080818D7F8083199B04C081E0AC
S11309C08093AF0103C082E08093AF01FF91EF9168
S11309D08F910F900FBE0F901F9018951F920F923A
S11309E00FB60F9211248F939F93EF93FF9381E09F
S11309F090E09093B1018093B001EA98E8E6F0E0CA
S1130A0080818D7F8083FF91EF919F918F910F90D3
S1130A100FBE0F901F9018958091B5018F5F809342
S1130A20B501833010F01092B5019091B5019B5F30
S1130A3081E001C0880F9A95EAF78093B20185B1ED
S1130A40806E85B995B18091B2018095892385B96D
S1130A50E091B501F0E0EA54FE4F808182B9089537
S1130A60E0EDE60FEA30A8F09FEB960F9A3118F408
S1130A70E9ECE60F0EC09FE9960F9A3118F4E9EA03
S1130A80E60F07C06D3221F06032D9F4E5E201C00F
S1130A90E4E290E0F0E0EE5FFE4F2081FC01EA54D6
S1130AA0FE4F2083442339F0FC01EA54FE4F808139
S1130AB08F7780830895FC01EA54FE4F808180681B
S1130AC080830895EF920F931F93CF93DF93C82FE2
S1130AD0162F642FD22F4E2D80E00E943005402F18
S1130AE0612F81E00E9430054D2F6C2F82E00E941F
S1130AF03005DF91CF911F910F91EF900895CF931F
S1130B00DF939C012D593F4F2B34344068F5EC01A1
S1130B10992354F440E06DE282E00E943005882776
S1130B2099278C1B9D0B0EC064E670E00E942B0974
S1130B30D82FC92F605D7F4F40E082E00E943005CE
S1130B408D2F9C2F6AE070E00E942B09EC01605D00
S1130B507F4F40E081E00E943005BE01605D7F4F21
S1130B6040E080E00E943005DF91CF91089584B188
S1130B70806E84B98FEF81B98BE790E00E947F0586
S1130B80089584B5826084BD16BC8BE987BDEEE60A
S1130B90F0E080818260808385B5846085BD08959E
S1130BA09B01AC01A8EEB3E00E9461092DEC37E093
S1130BB040E050E00E943F09CA01B90108951F9224
S1130BC00F920FB60F9211242F933F934F935F937D
S1130BD06F937F938F939F93AF93BF93EF93FF9301
S1130BE080913901882361F0809139018F5F80936E
S1130BF03901843028F01092390181E080933A0160
S1130C008091370190913801892B89F080913701C7
S1130C1090913801019690933801809337014A9757
S1130C2030F010923801109237010E94F502809141
S1130C30B4018F5F8093B401833028F01092B40123
S1130C4081E08093B30180912C0190912D01019654
S1130C5090932D0180932C0120910001309101018A
S1130C602817390778F410922D0110922C018091E5
S1130C702A01811104C080912901882319F081E09F
S1130C8080932B018091B0019091B101892BC1F126
S1130C908091B0019091B10101969093B10180933C
S1130CA0B0018091B0019091B1018935924070F00A
S1130CB01A9B04C086E08093AF0103C085E0809353
S1130CC0AF011092B1011092B0011AC08091B0012D
S1130CD09091B101CD97A0F08091AF01882369F084
S1130CE00FC083E08093AF011092B1011092B00164
S1130CF007C084E08093AF0103C01A99FACFF1CF03
S1130D00FF91EF91BF91AF919F918F917F916F91DF
S1130D105F914F913F912F910F900FBE0F901F90B5
S1130D201895CF93DF93D62FC42F519A599A1092C6
S1130D30020210920102109200021092FF01A0E040
S1130D40B0E0880F991FAA1FBB1F880F991FAA1F05
S1130D50BB1F9C01AD01220F331F441F551F220FDF
S1130D60331F441F551F60E07DE281E391E00E9440
S1130D703F09215031093093C5002093C400E2ECAF
S1130D80F0E080818F738083D23021F48081886089
S1130D90808305C0E2ECF0E08081877F8083C230ED
S1130DA049F4E2ECF0E080818F7E80838081806270
S1130DB080830DC0C33031F4E2ECF0E080818063C5
S1130DC0808305C0E2ECF0E080818F7C8083E2ECDC
S1130DD0F0E0808186608083E1ECF0E08081806ACD
S1130DE08083808188618083DF91CF910895909181
S1130DF000028091FF01981791F0E091FF01EF5FED
S1130E00EF71E093FF01F0E0ED5FFD4F20818091F1
S1130E10FE0190E0982F8827820F911D089580E0AD
S1130E2091E00895809100022091FF0190E04F9697
S1130E30821B91096FE170E00E942B090895909143
S1130E4002029F5F9F7120910102921751F0E92FD6
S1130E50F0E0ED5DFD4F80839093020281E090E02D
S1130E60089580E090E00895E1ECF0E080818062F4
S1130E70808308951F920F920FB60F9211242F931F
S1130E808F939F93EF93FF938091C0002091C600AE
S1130E908770E0910002EF5FEF719091FF01E91715
S1130EA039F0E0930002F0E0ED5FFD4F208301C0D4
S1130EB082E08093FE01FF91EF919F918F912F919A
S1130EC00F900FBE0F901F9018951F920F920FB6A0
S1130ED00F9211248F939F93EF93FF9390910202AB
S1130EE080910102981769F0E0910102EF5FEF71C0
S1130EF0E0930102F0E0ED5DFD4F80818093C60038
S1130F0005C0E1ECF0E080818F7D8083FF91EF915B
S1130F109F918F910F900FBE0F901F901895CF93B4
S1130F20DF93D62FC42F539A5B9A1092BD0110926F
S1130F30BC011092BB011092BA01A0E0B0E0880F8E
S1130F40991FAA1FBB1F880F991FAA1FBB1F9C01B3
S1130F50AD01220F331F441F551F220F331F441F9F
S1130F60551F60E07DE281E391E00E943F0921503A
S1130F7031093093CD002093CC00EAECF0E080817D
S1130F808F738083D23021F480818860808305C090
S1130F90EAECF0E08081877F8083C23031F4EAECB0
S1130FA0F0E08081806280830DC0C33031F4EAECCC
S1130FB0F0E080818063808305C0EAECF0E080810A
S1130FC08F7C8083EAECF0E0808186608083E9ECAA
S1130FD0F0E08081806A8083808188618083DF91F2
S1130FE0CF9108959091BB018091BA01981791F027
S1130FF0E091BA01EF5FEF71E093BA01F0E0E254DF
S1131000FE4F20818091B90190E0982F8827820FAC
S1131010911D089580E091E008958091BB01209195
S1131020BA0190E04F96821B91096FE170E00E9433
S11310302B0908951F920F920FB60F9211242F932C
S11310408F939F93EF93FF938091C8002091CE00DC
S11310508770E091BB01EF5FEF719091BA01E917DE
S113106039F0E093BB01F0E0E254FE4F208301C06D
S113107082E08093B901FF91EF919F918F912F911D
S11310800F900FBE0F901F9018951F920F920FB6DE
S11310900F9211248F939F93EF93FF939091BD012F
S11310A08091BC01981769F0E091BC01EF5FEF718A
S11310B0E093BC01F0E0E252FE4F80818093CE00C9
S11310C005C0E9ECF0E080818F7D8083FF91EF9192
S11310D09F918F910F900FBE0F901F901895EF92D4
S11310E0FF921F93CF93DF93CDB7DEB764970FB60C
S11310F0F894DEBF0FBECDBF25E041E060E0CE0135
S113110041960E94480289899A89AB89BC89809357
S11311107B0290937C02A0937D02B0937E0226E032
S113112041E060E0CE010D960E9448028D859E85C7
S1131130AF85B8898093770290937802A09379025F
S1131140B0937A0227E041E060E0CE0109960E9464
S1131150480289859A85AB85BC85809373029093F8
S11311607402A0937502B09376020F2EF3E5EF2E6E
S1131170F2E0FF2EF02D10E0212F40E060E0CE01E0
S113118005960E9448028D819E81AF81B885F70142
S113119081939193A193B1937F011F5F183061F7FD
S11311A00F2EF3E4EF2EF2E0FF2EF02D10E0212FAE
S11311B041E060E0CE0101960E94480289819A8153
S11311C0AB81BC81F70181939193A193B1937F018A
S11311D01F5F143061F780E991E00E946C0264960D
S11311E00FB6F894DEBF0FBECDBFDF91CF911F9134
S11311F0FF90EF9008950F931F93CF93DF938BE7A6
S113120092E00E94CD0187E792E00E94CD0183E73E
S113121092E00E94CD01C3E5D2E003E712E0CE01E3
S11312200E94CD012496C017D107C9F783E492E048
S11312300E94CD0187E492E00E94CD018BE492E00C
S11312400E94CD018FE492E00E94CD01DF91CF9105
S11312501F910F91089597FB072E16F4009407D061
S113126077FD09D00E946C0907FC05D03EF49095E7
S113127081959F4F0895709561957F4F0895A1E2E0
S11312801A2EAA1BBB1BFD010DC0AA1FBB1FEE1FFC
S1131290FF1FA217B307E407F50720F0A21BB30B47
S11312A0E40BF50B661F771F881F991F1A9469F7C3
S11312B060957095809590959B01AC01BD01CF011F
S11312C008950E948609A59F900DB49F900DA49F38
S11312D0800D911D11240895AA1BBB1B51E107C069
S11312E0AA1FBB1FA617B70710F0A61BB70B881FB2
S11312F0991F5A95A9F780959095BC01CD01089541
S1131300EE0FFF1F0590F491E02D0994A29FB00108
S1131310B39FC001A39F700D811D1124911DB29F25
S1131320700D811D1124911D0895F999FECF92BD70
S113133081BDF89A992780B50895262FF999FECF93
S11313401FBA92BD81BD20BD0FB6F894FA9AF99ADE
S10D13500FBE01960895F894FFCF34
S113135A6400C0F9A4B0999282F880908883C6A1E7
S113136A868EC28BFBE18AC7EAABA38C98AFD2877D
S10B137AE3E3C1EB91E4BFFFC2
S9030000FC
