:100000000C945F000C9487000C9487000C94AF054F
:100010000C9487000C948E050C9487000C94870038
:100020000C9487000C9487000C9487000C94870034
:100030000C9487000C9487000C9487000C94870024
:100040000C940B0D0C9487000C9487000C94870083
:100050000C94BA0E0C94E50E0C9447050C94870092
:100060000C9487000C9487000C9487000C948700F4
:100070000C94BC0F0C94E70F0C948700E207E8097E
:10008000E8091C08E8091C08E809E809E8095D080E
:10009000E8099E08E8091609E8094509980ADC0AF2
:1000A000FF0A220B310B5D0B740BCE0CCE0CB20B86
:1000B000BD0BFA0B230C5F0CCE0C840C9D1011248D
:1000C0001FBECFEFD8E0DEBFCDBF11E0A0E0B1E0B2
:1000D000EEE1F3E202C005900D92A23DB107D9F71F
:1000E00023E0A2EDB1E001C01D92A63DB207E1F709
:1000F00010E0CFE5D0E004C02197FE010E94291155
:10010000CE35D107C9F70E94DC000C948D110C94F8
:1001100000001092B9008CE58093B800089594EA2D
:100120009093BC00ECEBF0E090819923ECF7909178
:10013000B900987F983011F09031A1F48093BB0002
:1001400084E88093BC00ECEBF0E080818823ECF73E
:100150009091B900987F983139F081E0903429F47A
:1001600080E0089581E0089580E0089584E9809317
:10017000BC00ECEBF0E0808184FDFDCF089580931E
:10018000BB0084E88093BC00ECEBF0E08081882326
:10019000ECF79091B900987F81E0983209F480E003
:1001A000089584E88093BC00ECEBF0E08081882324
:1001B000ECF78091BB0008950E94ED0C0E9489002D
:1001C00040E062E080E09BE40E940B0E40E061E0D2
:1001D00082E19AE70E940F0F0E9435050E946C058C
:1001E0000E9460060E9411107894C1E00E94B10F35
:1001F000892B11F00E9493028091D801882321F06D
:100200001092D8010E945E070E948C0E892B19F073
:100210000E944504F9CF0E94E50281110E94090362
:100220000E94EE0281110E94930380911E02882396
:1002300041F010921E020E94B20E811102C00E9473
:10024000410580911A02882321F010921A020E941F
:100250002F0480911702882339F0109217028AE246
:100260000E94970EC0931E0280911602882389F087
:10027000109216020E94EE02882329F01092420189
:100280000E94F70206C049E552E06C2F85ED0E94FE
:100290003A0380912302882321F0109223020E94C6
:1002A000CD058091D401882329F01092D40180E0FB
:1002B0000E94740280911F02882321F080911F0206
:1002C000843099F480915D02882321F010925D02C0
:1002D0000E946A0680915A02882321F010925A02E5
:1002E0000E94C4060E94890A81CF0E94D207109200
:1002F0001F020E948505E6CFCF93DF93D62FC42F30
:100300008062880F0E948F008D2F0E94BF008C2F6B
:100310000E94BF000E94B600DF91CF910895CF9355
:10032000DF93D62F8062C82FCC0F8C2F0E948F00B6
:100330008D2F0E94BF000E94B6008C2F81600E940A
:100340008F000E94D100DF91CF9108950895FC01A4
:10035000838108951F93CF93DF93EC0189818111ED
:1003600010C02091D30181E090E00A8002C0880F84
:10037000991F0A94E2F7809582238093D30114E1B8
:100380000FC02091D20181E090E00A8002C0880F66
:10039000991F0A94E2F7809582238093D20115E198
:1003A000612F88810E948F0141E050E00A8002C0E5
:1003B000440F551F0A94E2F7482B612F88810E9451
:1003C0007C0181E08B83DF91CF911F9108951F9372
:1003D000CF93DF93EC018981811110C02091D3016B
:1003E00081E090E00A8002C0880F991F0A94E2F72A
:1003F000809582238093D30114E10FC02091D20114
:1004000081E090E00A8002C0880F991F0A94E2F709
:10041000809582238093D20115E1612F88810E940B
:100420008F0141E050E00A8002C0440F551F0A943A
:10043000E2F740954823612F88810E947C011B824E
:10044000DF91CF911F9108951F93CF93DF93EC011C
:10045000862F688349832A8311E0411101C010E08F
:10046000612F0E948F0141E050E00A8002C0440FDA
:10047000551F0A94E2F740954823612F88810E9416
:100480007C01CE010E94E701DF91CF911F91089579
:10049000FC0182E08383818181110EC02091D30110
:1004A00081E090E0028002C0880F991F0A94E2F771
:1004B000822B8093D30108952091D20181E090E0B6
:1004C000028002C0880F991F0A94E2F7822B809362
:1004D000D2010895BC0180E090E00E94FC0C709372
:1004E00001016093000108951F93CF93DF93C82FFC
:1004F00064E10E948F01182F65E18C2F0E948F010B
:100500004091D301D091D201D827412764E18C2FAB
:100510000E947C014D2F65E18C2F0E947C01DF91B0
:10052000CF911F910895CF93DF93C091D701D0E071
:100530000E94720FC352DE4F88838091D7018111D0
:1005400018C08091DD01807F803C29F580915002A8
:10055000882359F02091DD01809150022F7030E006
:1005600090E0019728173907B1F081E08093D70117
:1005700012C090E0FC01E352FE4F208122234CF098
:10058000FC01E352FE4F80818093D90181E080938A
:10059000D8011092D701DF91CF91089590EC9093FC
:1005A000DA0190915002992341F090915002EAEDC6
:1005B000F1E020819150922B9083EAEDF1E081836C
:1005C0001282CF010E94A20F08952091E50190911F
:1005D000E40181E0291301C080E008952091E30146
:1005E0009091E20181E0291301C080E0089580919B
:1005F000E3018093E201E091E301F0E0EE0FFF1FE1
:10060000EE0FFF1FEE0FFF1FEE5FFE4F81E08783AF
:1006100008954091E401E091E401F0E0EE0FFF1F46
:10062000EE0FFF1FEE0FFF1FEA51FE4F6181E091B9
:10063000E401F0E0EE0FFF1FEE0FFF1FEE0FFF1FB4
:10064000EA51FE4F808150E0440F551F440F551F63
:10065000440F551F48515E4F0E94DB069091E40104
:100660009F5F93709093E4010E94970E81E08093C6
:100670001D0208952091E3012F5F27709091E20100
:10068000291709F44EC0E091E301F0E0EE0FFF1FDF
:10069000EE0FFF1FEE0FFF1FEE5FFE4F8083E09116
:1006A000E301F0E0EE0FFF1FEE0FFF1FEE0FFF1F45
:1006B000EE5FFE4F84E0860F8183E091E301F0E07E
:1006C000EE0FFF1FEE0FFF1FEE0FFF1FEE5FFE4F3F
:1006D0001682E091E301F0E0EE0FFF1FEE0FFF1F27
:1006E000EE0FFF1FEE5FFE4F17826623B1F0A42FBF
:1006F000B52F80E090E0E091E301F0E03D91EE0F56
:10070000FF1FEE0FFF1FEE0FFF1FEE5FFE4FE80F04
:10071000F91F32830196861770F32093E30181E07D
:10072000089580E00895CF93E091E201F0E0EE0FAC
:10073000FF1FEE0FFF1FEE0FFF1FEE5FFE4F8781C3
:10074000882339F08091E2018F5F87708093E20106
:1007500084C0E091E201F0E0EE0FFF1FEE0FFF1FFB
:10076000EE0FFF1FEE5FFE4F8681811176C08FE591
:100770000E94970EE091E201F0E0EE0FFF1FEE0FF6
:10078000FF1FEE0FFF1FEE5FFE4F81810E94970E4D
:10079000E091E201F0E0EE0FFF1FEE0FFF1FEE0F02
:1007A000FF1FEE5FFE4F80810E94970EE091E201F5
:1007B000F0E0EE0FFF1FEE0FFF1FEE0FFF1FEE5FCB
:1007C000FE4F818190E00497181619064CF520E041
:1007D00030E0C0E08091E201E82FF0E0EE0FFF1F73
:1007E000EE0FFF1FEE0FFF1FEE5FFE4FE20FF31F36
:1007F00082810E94970ECF5F2C2F30E0A091E20102
:10080000B0E0AA0FBB1FAA0FBB1FAA0FBB1FAE5F92
:10081000BE4F11968C9190E0049728173907D4F2B7
:100820008FEE0E94970E80911D02811103C081E01E
:1008300080931E02E091E201F0E0EE0FFF1FEE0F49
:10084000FF1FEE0FFF1FEE5FFE4F81E0868381E00A
:1008500090E090931C0280931B02CF9108958091A9
:10086000E101853088F48091E1018F5F8093E1019F
:10087000E091E201F0E0EE0FFF1FEE0FFF1FEE0F21
:10088000FF1FEE5FFE4F16820895CF93DF93809196
:100890001D02882319F081E080931D02C091E001C0
:1008A000D0E00E94710ECA5FDD4F88838091E00125
:1008B0008F5F8093E0018130D1F510921C0210927D
:1008C0001B02809106028F3539F481E090E090930D
:1008D000190280931802BEC01092E00181E080935B
:1008E0001D02809106028C3AD1F41092E101E09150
:1008F000E201F0E0EE0FFF1FEE0FFF1FEE0FFF1FF4
:10090000EE5FFE4F81E08783809142018111A2C09A
:1009100081E08093420182E0809359029BC08091E4
:1009200006028A3209F096C00E942F0493C08230DA
:1009300079F4E091E501F0E080910702EE0FFF1FEE
:10094000EE0FFF1FEE0FFF1FEA51FE4F818382C0A3
:10095000E091E501F0E0EE0FFF1FEE0FFF1FEE0F3D
:10096000FF1FEA51FE4F9181891374C01092190242
:1009700010921802E091E501F0E0EE0FFF1FEE0F7C
:10098000FF1FEE0FFF1FEA51FE4FE181F0E0EB5F2A
:10099000FD4F80818F3E09F055C0E091E501F0E008
:1009A00080910802EE0FFF1FEE0FFF1FEE0FFF1FDB
:1009B000EA51FE4F8083E091E501F0E0EE0FFF1F6A
:1009C000EE0FFF1FEE0FFF1FEA51FE4F818190E0F7
:1009D0000497181619065CF520E030E040E080919D
:1009E000E501E82FF0E0D901A75FBD4F8C91EE0F34
:1009F000FF1FEE0FFF1FEE0FFF1FEA51FE4FE20F2A
:100A0000F31F82834F5F242F30E0A091E501B0E017
:100A1000AA0FBB1FAA0FBB1FAA0FBB1FAA51BE4F15
:100A200011968C9190E0049728173907C4F28091B1
:100A3000E5018F5F83709091E401891749F08093FD
:100A4000E50106C08AE20E94970E81E080931D02B4
:100A50001092E001DF91CF910895811103C02B988E
:100A60002C9A08952B9A2C98089584B1886184B9A2
:100A700081E00E942D05E1ECF0E0808180648083BC
:100A8000089580E00E942D050E94AC0E08951F92EB
:100A90000F920FB60F9211242F933F934F935F93B2
:100AA0006F937F938F939F93AF93BF93EF93FF9336
:100AB00081E00E942D05FF91EF91BF91AF919F9131
:100AC0008F917F916F915F914F913F912F910F90F7
:100AD0000FBE0F901F90189584B1887F84B9ECE603
:100AE000F0E0808181608083E8E6F0E080818260D0
:100AF0008083E9E6F0E0808180638083EA9A08954C
:100B000083B182FB882780F90895E29AD99AEA9AFC
:100B1000E8E6F0E080818260808308951F920F9262
:100B20000FB60F9211248F93EF93FF93189B0FC072
:100B3000EA98E8E6F0E080818D7F8083199B04C00D
:100B400081E080931F0203C082E080931F02FF9127
:100B5000EF918F910F900FBE0F901F9018951F92DD
:100B60000F920FB60F9211248F939F93EF93FF93E1
:100B700081E090E09093210280932002EA98E8E6D9
:100B8000F0E080818D7F8083FF91EF919F918F9125
:100B90000F900FBE0F901F901895809125028F5FC8
:100BA00080932502833010F0109225029091250247
:100BB0009B5F81E001C0880F9A95EAF7809322023B
:100BC00085B1806E85B995B1809122028095892387
:100BD00085B9E0912502F0E0EA5DFD4F808182B9A0
:100BE000089590E0E62FF0E0EB5BFE4F2081FC01E2
:100BF000EA5DFD4F2083442339F0FC01EA5DFD4F9F
:100C000080818F7780830895FC01EA5DFD4F8081AC
:100C1000806880830895EF920F931F93CF93DF93A3
:100C2000C82F162F642FD22F4E2D80E00E94F10581
:100C3000402F612F81E00E94F1054D2F6C2F82E043
:100C40000E94F105DF91CF911F910F91EF900895D0
:100C5000CF93DF939C012D593F4F2B34344068F5DF
:100C6000EC01992354F440E06DE282E00E94F1052A
:100C7000882799278C1B9D0B0EC064E670E00E94AC
:100C8000F310D82FC92F605D7F4F40E082E00E94B3
:100C9000F1058D2F9C2F6AE070E00E94F310EC01AB
:100CA000605D7F4F40E081E00E94F105BE01605D24
:100CB0007F4F40E080E00E94F105DF91CF910895E1
:100CC00084B1806E84B98FEF81B98BE790E00E9488
:100CD00028060895EF920F9380915902843071F0A5
:100CE00018F4813031F04DC08630E9F0803199F14F
:100CF00048C0809150028093520243C00E948005F8
:100D0000882329F0809155028093570208C0809172
:100D1000570280935502809157028093540283E0DA
:100D2000809359022EC00E948005882341F0809153
:100D300055028093570283E08093590222C080912C
:100D4000570280935502809157028093540285E0A8
:100D50008093590216C080914B0280934C0280917F
:100D60004C028F3F49F4E12C00E020E046E666E6C5
:100D70008FE60E940B0605C080914C0290E00E9415
:100D800028060F91EF900895CF93DF938091590239
:100D90008C3071F4C9ECD1E0488164E180E00E94BC
:100DA0007C0149814F70406465E180E00E947C01D4
:100DB000DF91CF910895813B99F58091590284305C
:100DC000C1F4FA0180810E94E8108150909157028D
:100DD000891307C09091570281E0892780935602BA
:100DE00002C08093570280915702809355028CEA8B
:100DF000089580915902863049F4E9ECF1E0908140
:100E0000DA018C91892780838CEA089580915902B8
:100E1000883009F04BC082E0809359028CEA089533
:100E2000823B61F580915902843041F481E08093E6
:100E3000530282E0809359028CEA0895809159020E
:100E4000863099F4FA018081982F9F7039F0E9EC8F
:100E5000F1E09181892781838CEA089510925302F1
:100E600082E0809359028CEA08958091590288307B
:100E7000F9F482E0809359028CEA0895843BD1F41E
:100E800080915902843021F080915902863029F4F2
:100E900088E0809359028CEA089580915902883045
:100EA00059F482E0809359028CEA08958CEA0895FF
:100EB0008CEA08958AE208958CEA0895EBE2F2E064
:100EC00080E09091D9012281291302C080935702BA
:100ED0008F5F34968830A9F70895EF92FF920F93B1
:100EE0001F93CF93DF930AEA13E0C0E0D0E00F2E08
:100EF000F9ECEF2EF1E0FF2EF02DF701808190E06C
:100F00000C2E02C0959587950A94E2F780FF09C0E0
:100F1000C8010E94A701813061F0C8010E94AA01A6
:100F200008C0C8010E94A701882319F0C8010E94C7
:100F3000E70121960C5F1F4FC830D105F1F60AE991
:100F400013E0C0E0D0E00F2EF9ECEF2EF1E0FF2E21
:100F5000F02DF701818190E00C2E02C095958795C8
:100F60000A94E2F780FF09C0C8010E94A7018130FE
:100F700061F0C8010E94AA0108C0C8010E94A7012F
:100F8000882319F0C8010E94E70121960C5F1F4FCA
:100F9000C430D105F1F6DF91CF911F910F91FF90F1
:100FA000EF900895EF920F93E09159028E2F90E009
:100FB000FC013197E031F10508F00AC2E25CFF4F15
:100FC0000C94291180911F02833029F480915202E0
:100FD00080935002FDC180911F02853071F4809191
:100FE0005202809350026091500280E090E00E9493
:100FF0007F1182E080935902EBC180911F02813002
:1010000059F480915202803108F0E2C1809152027D
:101010008F5F80935202DCC180911F02823009F001
:10102000D7C180915202882309F4D2C18091520223
:10103000815080935202CCC180911F02833041F4D1
:10104000809155028093570283E080935902C0C17A
:1010500080911F02853041F48091550280935702A0
:1010600089E080935902B4C180911F02813081F4DC
:1010700080915502873028F4809155028F5F8093CC
:10108000550281E090E090935F0280935E02A0C1E0
:1010900080911F02823009F09BC180915502882304
:1010A00029F08091550281508093550281E090E0B3
:1010B00090935F0280935E028BC180911F02833008
:1010C000C9F480914F02811104C082E080935902DB
:1010D0007FC180914F02813021F48BE080935902CF
:1010E00077C180914F02823009F072C18DE0809308
:1010F00059026EC180911F02853009F469C1809147
:101100001F02813059F480914F02823008F060C193
:1011100080914F028F5F80934F025AC180911F02CE
:10112000823009F055C180914F02882309F450C1E3
:1011300080914F02815080934F024AC180911F02DB
:10114000833029F580912A02883078F420912A0290
:10115000E9ECF1E081E090E002C0880F991F2A9548
:10116000E2F79081892780830FC020912A02E9EC61
:10117000F1E0285081E090E002C0880F991F2A9585
:10118000E2F79181892781830E946D0721C18091B7
:101190001F02853061F56091570270E0660F771F7E
:1011A000660F771F6C597F4F42E050E089EC91E069
:1011B0000E947511E0915702F0E0EE0FFF1FEE0F55
:1011C000FF1FE55DFD4FA9ECB1E08C918083E091BC
:1011D0005702F0E0EE0FFF1FEE0FFF1FE55DFD4F22
:1011E00011968C91818389E080935902F1C080919E
:1011F0001F02813059F480912A028B3008F0E8C038
:1012000080912A028F5F80932A02E2C080911F02A0
:10121000823009F0DDC080912A02882309F4D8C009
:1012200080912A02815080932A02D2C080911F02AD
:10123000833021F48FE080935902CAC080911F024D
:10124000853021F489E080935902C2C080911F0249
:10125000813059F480934D02E12C00E020E044E716
:1012600065E78FE60E940B06B3C080911F028230B3
:1012700009F0AEC010924D02E12C00E020E040E207
:101280006EE689E60E940B06A3C080911F028330A0
:1012900049F410925F0210925E0280914C0280939A
:1012A0004B0296C080911F028530D9F580914D0286
:1012B00081111AC0E091570280914C02F0E0EE0FCC
:1012C000FF1FEE0FFF1FE55DFD4F828360914C0213
:1012D0008091570290E0880F991F880F991F8A59B3
:1012E0009F4F0E947F1119C0E091570280914C02DC
:1012F000F0E0EE0FFF1FEE0FFF1FE55DFD4F838354
:1013000060914C028091570290E0880F991F880FDE
:10131000991F89599F4F0E947F118DE08093590238
:1013200057C080911F02813011F580914C028F3798
:1013300029F080914C028F5F80934C0280914C0287
:101340008F3F49F4E12C00E020E046E666E68FE6B8
:101350000E940B0605C080914C0290E00E94280676
:1013600081E090E090935F0280935E0231C08091B3
:101370001F02823069F580914C02882324F080910D
:101380004C02811104C08FEF80934C0209C0809100
:101390004C02882329F080914C02815080934C02AA
:1013A00080914C028F3F49F4E12C00E020E046E6BA
:1013B00066E68FE60E940B0605C080914C0290E025
:1013C0000E94280681E090E090935F0280935E0285
:1013D0000F91EF900895CF93DF9300D0CDB7DEB794
:1013E000E0915702F0E0EE0FFF1FEE0FFF1FE55DEB
:1013F000FD4F80819181A281B3818093C901909337
:10140000CA01A093CB01B093CC01E0915702F0E068
:10141000EE0FFF1FEE0FFF1FE55DFD4F83818F3F36
:1014200061F0E0915702F0E0EE0FFF1FEE0FFF1F9B
:10143000E55DFD4F83810E94CE021A821982AE01C2
:101440004F5F5F4F62E083ED0E943A034DEC51E045
:1014500064E087ED0E943A039091570281E001C059
:10146000880F9A95EAF78983AE014F5F5F4F61E07D
:1014700080ED0E943A038091570290E001960E940D
:1014800028060E946D070F900F90DF91CF9108956D
:10149000CF93DF9300D000D0CDB7DEB719821A8288
:1014A0001B821C82AE014F5F5F4F62E083ED0E94A2
:1014B0003A0349EC51E061E080ED0E943A0340912B
:1014C000CA0150E0FE01319680E090E07FE56FE2D6
:1014D0009A01082E02C0359527950A94E2F720FF5D
:1014E00002C0608301C070830196319684309105FB
:1014F00079F7AE014F5F5F4F64E087ED0E943A03DA
:101500000E946D070F900F900F900F90DF91CF9179
:101510000895EF920F93E09159028E2F90E0803161
:10152000910508F03BC2FC01E25BFF4F0C942911CE
:1015300040E250E064E670E08BE292E00E945D11D0
:1015400080E090E00E946D118093500280915002E3
:10155000813140F0109250026091500280E090E0A2
:101560000E947F110E948005882311F182ED93E093
:101570000E94E7018EEC93E00E94E7018AEC93E081
:101580000E94AA0180915002811109C0E12C00E063
:1015900020E04EE66DE68FE60E940B0605C08091C6
:1015A000500290E00E94280681E080935902F6C123
:1015B00082E080935902F2C19091520280915102CF
:1015C0009817C1F080915202811109C0E12C00E00E
:1015D00020E04EE66DE68FE60E940B0605C0809186
:1015E000520290E00E94280681E090E090935F0212
:1015F00080935E028091520280935102CFC180910C
:10160000570290E001960E94280682ED93E00E9426
:10161000AA018EEC93E00E94E7018AEC93E00E941D
:10162000E70180915302811104C083E08093590245
:10163000B5C180915302813009F0B0C185E080933B
:101640005902ACC11092530284E080935902109267
:101650005F0210925E029091570281E08927809389
:101660005602909157028091560298130E94EB09FE
:101670009091550280915402981709F48FC180917E
:10168000550290E001960E942806E0915502F0E094
:10169000EE0FFF1FEE0FFF1FE55DFD4F8081918173
:1016A000A281B3818093C9019093CA01A093CB0119
:1016B000B093CC010E946D0771C1E12C00E020E0E5
:1016C00043E46CE48DE40E940B0681E080935302B6
:1016D00096E09093590210925F0210925E029091F0
:1016E000C90189278093C5019091C9018091C501E5
:1016F000981311C09091CA018091C60198130BC034
:101700009091CB018091C701981305C09091CC01B5
:101710008091C80198130E94480A909155028091C7
:101720005402981709F43AC18091550290E001964D
:101730000E942806E0915502F0E0EE0FFF1FEE0F29
:10174000FF1FE55DFD4F80819181A281B381809370
:10175000C9019093CA01A093CB01B093CC010E9420
:101760006D071CC190914F0281E0892780934E0242
:101770000E94EB098AE08093590290914F02809178
:101780004E02981791F180914F0281110DC082EDA8
:1017900093E00E9448028EEC93E00E94E7018AECFD
:1017A00093E00E94E70121C080914F02813069F4EB
:1017B00082ED93E00E94E7018EEC93E00E944802E4
:1017C0008AEC93E00E94E70110C080914F028230C2
:1017D00061F482ED93E00E94E7018EEC93E00E94B9
:1017E000E7018AEC93E00E94480280914F028093C7
:1017F0004E02D4C082ED93E00E94E7018EEC93E0AC
:101800000E94AA018AEC93E00E94E701E09157024E
:10181000F0E0EE0FFF1FEE0FFF1FE55DFD4F808133
:101820009181A281B3818093C9019093CA01A09351
:10183000CB01B093CC0110922A0281E0809329025F
:101840008CE08093590290912A0280912902981786
:1018500089F180912A02883098F480912A0241E02F
:1018600050E002C0440F551F8A95E2F764E180E022
:101870000E947C0140E465E180E00E947C0114C08C
:1018800040E064E180E00E947C0180912A0288505F
:1018900041E050E002C0440F551F8A95E2F74064D2
:1018A00065E180E00E947C0181E090E090935C0221
:1018B00080935B0280912A02809329026FC082ED9F
:1018C00093E00E94E7018EEC93E00E94E7018AEC2E
:1018D00093E00E94AA0180914D02811109C0E12C80
:1018E00000E020E040E26EE689E60E940B0608C0B8
:1018F000E12C00E020E044E765E78FE60E940B065C
:101900008EE0809359024AC080914D02811119C026
:10191000E0915702F0E0EE0FFF1FEE0FFF1FE55DB5
:10192000FD4F828180934C02E0915702F0E0EE0F70
:10193000FF1FEE0FFF1FE55DFD4F828180934B027D
:1019400018C0E0915702F0E0EE0FFF1FEE0FFF1FEF
:10195000E55DFD4F838180934C02E0915702F0E0FA
:10196000EE0FFF1FEE0FFF1FE55DFD4F838180939C
:101970004B0280914C028F3F49F4E12C00E020E0C3
:1019800046E666E68FE60E940B0605C080914C0293
:1019900090E00E94280680E18093590280915702CE
:1019A0008093560280915902809358028091C90118
:1019B0009091CA01A091CB01B091CC018093C50157
:1019C0009093C601A093C701B093C80180915502BE
:1019D000809354020F91EF90089584B5826084BD86
:1019E00016BC8BE987BDEEE6F0E0808182608083E3
:1019F00085B5846085BD08959B01AC01A8EEB3E078
:101A00000E942F112DEC37E040E050E00E940711BA
:101A1000CA01B90108951F920F920FB60F921124B7
:101A20002F933F938F939F9380915E0290915F02DB
:101A3000892B99F080915E0290915F0201969093BC
:101A40005F0280935E028D3D954038F010925F02F8
:101A500010925E0281E080935D0280915B02909122
:101A60005C02892B99F080915B0290915C02019657
:101A700090935C0280935B028739910538F0109255
:101A80005C0210925B0281E080935A0280911D02F9
:101A9000882361F080911D028F5F80931D02833047
:101AA00028F010921D0281E080931E028091430174
:101AB00090914401019690934401809343018D3DA0
:101AC000954040F081E090E0909344018093430181
:101AD0008093160280911B0290911C02892B91F039
:101AE00080911B0290911C02019690931C0280939E
:101AF0001B02419738F010921C0210921B0281E0E9
:101B000080931A028091180290911902892B91F00A
:101B10008091180290911902019690931902809376
:101B20001802069738F0109219021092180281E0FC
:101B300080931702809124028F5F80932402833068
:101B400028F01092240281E0809323028091D50135
:101B50009091D60101969093D6018093D501209162
:101B60000001309101012817390778F41092D6014D
:101B70001092D5018091D301811104C08091D201CE
:101B8000882319F081E08093D40180912002909104
:101B90002102892BB9F180912002909121020196B6
:101BA0009093210280932002809120029091210243
:101BB0008935924068F01A9B04C085E080931F022B
:101BC00002C010921F0210922102109220021AC02D
:101BD0008091200290912102CD97A0F080911F0268
:101BE000882369F00FC083E080931F0210922102C6
:101BF0001092200207C084E080931F0203C01A994C
:101C0000FACFF1CF9F918F913F912F910F900FBEFF
:101C10000F901F901895CF93DF93D62FC42F519A12
:101C2000599A1092E9021092E8021092E70210927B
:101C3000E602A0E0B0E0880F991FAA1FBB1F880F23
:101C4000991FAA1FBB1F9C01AD01220F331F441F08
:101C5000551F220F331F441F551F60E07DE281E3B3
:101C600091E00E940711215031093093C500209363
:101C7000C400E2ECF0E080818F738083D23021F4E5
:101C800080818860808305C0E2ECF0E08081877FFE
:101C90008083C23049F4E2ECF0E080818F7E808363
:101CA0008081806280830DC0C33031F4E2ECF0E0CB
:101CB00080818063808305C0E2ECF0E080818F7CCE
:101CC0008083E2ECF0E0808186608083E1ECF0E0EC
:101CD0008081806A8083808188618083DF91CF9159
:101CE00008959091E7028091E602981791F0E091B3
:101CF000E602EF5FEF73E093E602F0E0E651FD4F9E
:101D000020818091E50290E0982F8827820F911D15
:101D1000089580E091E008953091E7022091E60275
:101D200081E090E0321302C080E090E0089590914D
:101D3000E9029F5F9F732091E802921751F0E92F0B
:101D4000F0E0E65DFC4F80839093E90281E090E053
:101D5000089580E090E00895E1ECF0E080818062F9
:101D6000808308952091E9029091E80281E029138F
:101D700080E008951F920F920FB60F9211242F93B7
:101D80008F939F93EF93FF938091C0002091C600A3
:101D90008770E091E702EF5FEF739091E602E91739
:101DA00039F0E093E702F0E0E651FD4F208301C0F7
:101DB00082E08093E502FF91EF919F918F912F91A7
:101DC0000F900FBE0F901F9018951F920F920FB695
:101DD0000F9211248F939F93EF93FF939091E902B9
:101DE0008091E802981769F0E091E802EF5FEF73E5
:101DF000E093E802F0E0E65DFC4F80818093C6004E
:101E000005C0E1ECF0E080818F7D8083FF91EF9150
:101E10009F918F910F900FBE0F901F901895CF93A9
:101E2000DF93D62FC42F539A5B9A109264021092BC
:101E300063021092620210926102A0E0B0E0880F8B
:101E4000991FAA1FBB1F880F991FAA1FBB1F9C01A8
:101E5000AD01220F331F441F551F220F331F441F94
:101E6000551F60E07DE281E391E00E94071121505F
:101E700031093093CD002093CC00EAECF0E0808172
:101E80008F738083D23021F480818860808305C085
:101E9000EAECF0E08081877F8083C23031F4EAECA5
:101EA000F0E08081806280830DC0C33031F4EAECC1
:101EB000F0E080818063808305C0EAECF0E08081FF
:101EC0008F7C8083EAECF0E0808186608083E9EC9F
:101ED000F0E08081806A8083808188618083DF91E7
:101EE000CF9108959091620280916102981791F0CC
:101EF000E0916102EF5FEF73E0936102F0E0EB5974
:101F0000FD4F20818091600290E0982F8827820FFA
:101F1000911D089580E091E00895209164022F5F63
:101F20002F73909163022917E1F3E22FF0E0EB5554
:101F3000FD4F808320936402E9ECF0E080818062B1
:101F400080830895CF93DF93EC018881882331F05B
:101F500021960E948D0F89918111FBCFDF91CF9146
:101F60000895309162022091610281E090E0321385
:101F700002C080E090E008951F920F920FB60F927A
:101F800011242F938F939F93EF93FF938091C80019
:101F90002091CE008770E0916202EF5FEF73909125
:101FA0006102E91739F0E0936202F0E0EB59FD4F6E
:101FB000208301C082E080936002FF91EF919F91A6
:101FC0008F912F910F900FBE0F901F9018951F9219
:101FD0000F920FB60F9211248F939F93EF93FF935D
:101FE0009091640280916302981769F0E091630216
:101FF000EF5FEF73E0936302F0E0EB55FD4F8081FC
:102000008093CE0005C0E9ECF0E080818F7D808375
:10201000FF91EF919F918F910F900FBE0F901F90A6
:102020001895EF92FF921F93CF93DF93CDB7DEB752
:1020300064970FB6F894DEBF0FBECDBF25E041E038
:1020400060E0CE0141960E94240289899A89AB8979
:10205000BC898093D2039093D303A093D403B0930D
:10206000D50326E041E060E0CE010D960E942402F7
:102070008D859E85AF85B8898093CE039093CF03DD
:10208000A093D003B093D10327E041E060E0CE01FC
:1020900009960E94240289859A85AB85BC85809328
:1020A000CA039093CB03A093CC03B093CD030F2E20
:1020B000FAEAEF2EF3E0FF2EF02D10E0212F40E0A2
:1020C00060E0CE0105960E9424028D819E81AF8141
:1020D000B885F70181939193A193B1937F011F5F1D
:1020E000183061F70F2EFAE9EF2EF3E0FF2EF02DF6
:1020F00010E0212F41E060E0CE0101960E94240211
:1021000089819A81AB81BC81F70181939193A193DD
:10211000B1937F011F5F143061F788E691E00E9460
:102120006A0264960FB6F894DEBF0FBECDBFDF9192
:10213000CF911F91FF90EF9008950F931F93CF932E
:10214000DF9382ED93E00E94A6018EEC93E00E9463
:10215000A6018AEC93E00E94A601CAEAD3E00AEC49
:1021600013E0CE010E94A60124960C171D07C9F7A3
:102170008AE993E00E94A6018EE993E00E94A601FD
:1021800082EA93E00E94A60186EA93E00E94A601FB
:10219000CAE7D3E00AE913E0CE010E94A601249623
:1021A000C017D107C9F78AE693E00E94A6018EE620
:1021B00093E00E94A60182E793E00E94A60186E7D1
:1021C00093E00E94A601DF91CF911F910F91089596
:1021D000882331F090E086959F5F8111FCCF01C08C
:1021E00090E0892F089597FB072E16F4009407D0EE
:1021F00077FD09D00E943A1107FC05D03EF4909576
:1022000081959F4F0895709561957F4F0895A1E244
:102210001A2EAA1BBB1BFD010DC0AA1FBB1FEE1F60
:10222000FF1FA217B307E407F50720F0A21BB30BAB
:10223000E40BF50B661F771F881F991F1A9469F727
:1022400060957095809590959B01AC01BD01CF0183
:102250000895EE0FFF1F0590F491E02D09940E9460
:102260004E11A59F900DB49F900DA49F800D911DC0
:1022700011240895AA1BBB1B51E107C0AA1FBB1F55
:10228000A617B70710F0A61BB70B881F991F5A9502
:10229000A9F780959095BC01CD010895A29FB0014A
:1022A000B39FC001A39F700D811D1124911DB29F8A
:1022B000700D811D1124911D0895DC01CB01FC01DD
:1022C000F999FECF06C0F2BDE1BDF89A319600B48F
:1022D0000D9241505040B8F70895F999FECF92BD44
:1022E00081BDF89A992780B50895DC01CB0103C020
:1022F0002D910E94801141505040D0F70895262F13
:10230000F999FECF1FBA92BD81BD20BD0FB6F894DA
:0E231000FA9AF99A0FBE01960895F894FFCF3D
:10231E00640000000000000000010000000000004A
:10232E00000000000000000000000000000000009F
:10233E00000000000000000000000000000000008F
:10234E00000000000000000000000000000000007F
:10235E000000010100FFFFFFFFFFFFFFFFFFFFFF78
:10236E00FFFFFFFFFFFFFFFFFFFFFFFFFFFFFFFF6F
:10237E00FFFFFFFFFFFFFFDDFFFFFFFFFFC6F0FFC9
:10238E00FFFFBFFFADC0F9A4B0999282F88090FF15
:10239E00FFFFFFFFFFFF8883C6A1868EC289F9E18A
:1023AE008AC7EAABC08C98AFD287C1C1D58991E4F8
:1023BE00C69BF0FEF7FF8883A7A1868EC28BFBE13A
:1023CE008AC7EAABA38C98AFD287E3E3C18991E4C5
:1023DE00FFFFFFFFFF0000FFFF0000FFFF507265D1
:0223EE002000CD
:00000001FF
