S02200005261636B5F4C6F6F70436F6E74726F6C6C65725F4D41535445522E7372656339
S11300000C945F000C9487000C9487000C948B056F
S11300100C9487000C946A050C9487000C94870058
S11300200C9487000C9487000C9487000C94870030
S11300300C9487000C9487000C9487000C94870020
S11300400C94E40C0C9487000C9487000C948700A7
S11300500C945D0E0C94880E0C9423050C9487006C
S11300600C9487000C9487000C9487000C948700F0
S11300700C94610F0C948C0F0C948700BB07C1097E
S1130080C109F507C109F507C109C109C109360844
S1130090C1097708C109EF08C1091E09710AB50A27
S11300A0D80AFB0A0A0B360B4D0BA70CA70C8B0BBB
S11300B0960BD30BFC0B380CA70C5D0C42101124CF
S11300C01FBECFEFD8E0DEBFCDBF11E0A0E0B1E0AE
S11300D0E8E6F2E202C005900D92A239B107D9F721
S11300E023E0A2E9B1E001C01D92A035B207E1F717
S11300F010E0CFE5D0E004C02197FE010E94CE10AD
S1130100CE35D107C9F70E94DC000C9432110C944F
S113011000001092B9008CE58093B800089594EA29
S11301209093BC00ECEBF0E090819923ECF7909174
S1130130B900987F983011F09031A1F48093BB00FE
S113014084E88093BC00ECEBF0E080818823ECF73A
S11301509091B900987F983139F081E0903429F476
S113016080E0089581E0089580E0089584E9809313
S1130170BC00ECEBF0E0808184FDFDCF089580931A
S1130180BB0084E88093BC00ECEBF0E08081882322
S1130190ECF79091B900987F81E0983209F480E0FF
S11301A0089584E88093BC00ECEBF0E08081882320
S11301B0ECF78091BB0008950E94C60C0E94890050
S11301C040E062E080E09BE40E94B40D40E061E026
S11301D082E19AE70E94B20E0E9411050E9448052E
S11301E00E943C060E94B60F78940E94540F892BFB
S11301F011F00E947B0280919801882321F01092D3
S113020098010E9437070E94350E892B19F00E942D
S1130210F102F9CF0E94CD0281110E94E3030E94F2
S1130220D60281110E946D0480911802882321F066
S1130230109218020E941D0580911602882389F0ED
S1130240109216020E94D602882329F0109202010D
S11302500E94DF0206C043E552E061E085ED0E94A2
S1130260140480911D02882321F010921D020E9423
S1130270A90580919401882329F01092940180E0CB
S11302800E945C0280911902882321F08091190256
S1130290843099F480915702882321F010925702F8
S11302A00E94460680915402882321F01092540241
S11302B00E94A0060E94620A98CF0E94AB07109287
S11302C019020E946105E6CFCF93DF93D62FC42F86
S11302D08062880F0E948F008D2F0E94BF008C2F98
S11302E00E94BF000E94B600DF91CF910895CF9382
S11302F0DF93D62F8062C82FCC0F8C2F0E948F00E3
S11303008D2F0E94BF000E94B6008C2F81600E9436
S11303108F000E94D100DF91CF9108950895FC01D0
S1130320838108951F93CF93DF93EC018981811119
S113033010C02091930181E090E00A8002C0880FF0
S1130340991F0A94E2F7809582238093930114E124
S11303500FC02091920181E090E00A8002C0880FD2
S1130360991F0A94E2F7809582238093920115E104
S1130370612F88810E94770141E050E00A8002C029
S1130380440F551F0A94E2F7482B612F88810E947D
S1130390640181E08B83DF91CF911F9108951F93B6
S11303A0CF93DF93EC018981811110C020919301D7
S11303B081E090E00A8002C0880F991F0A94E2F756
S11303C0809582238093930114E10FC020919201C0
S11303D081E090E00A8002C0880F991F0A94E2F736
S11303E0809582238093920115E1612F88810E9478
S11303F0770141E050E00A8002C0440F551F0A947F
S1130400E2F740954823612F88810E9464011B8292
S1130410DF91CF911F9108951F93CF93DF93EC0148
S1130420862F688349832A8311E0411101C010E0BB
S1130430612F0E94770141E050E00A8002C0440F1E
S1130440551F0A94E2F740954823612F88810E9442
S11304506401CE010E94CF01DF91CF911F910895D5
S1130460FC0182E08383818181110EC0209193017C
S113047081E090E0028002C0880F991F0A94E2F79D
S1130480822B8093930108952091920181E090E062
S1130490028002C0880F991F0A94E2F7822B80938E
S11304A092010895BC0180E090E00E94D50C709305
S11304B001016093000108951F93CF93DF93C82F28
S11304C064E10E947701182F65E18C2F0E94770167
S11304D040919301D0919201D827412764E18C2F58
S11304E00E9464014D2F65E18C2F0E946401DF910D
S11304F0CF911F910895CF93DF93C0919701D0E0DE
S11305000E94150FC356DE4F888380919701811195
S113051018C080919D01807F803C29F580914A021A
S1130520882359F020919D0180914A022F7030E078
S113053090E0019728173907B1F081E08093970183
S113054012C090E0FC01E356FE4F208122234CF0C0
S1130550FC01E356FE4F80818093990181E08093F2
S1130560980110929701DF91CF91089590EC9093A8
S11305709A0190914A02992341F090914A02EAE942
S1130580F1E020819150922B9083EAE9F1E081839C
S11305901282CF010E94450F08952091A5019091E8
S11305A0A40181E0291301C080E008952091A301F2
S11305B09091A20181E0291301C080E00895809107
S11305C0A3018093A201E091A301F0E0EE0FFF1FCD
S11305D0EE0FFF1FEE0FFF1FEA55FE4F81E08783EA
S11305E00895CF93DF9380911702882319F081E057
S11305F080931702C091A001D0E00E941A0ECA5F36
S1130600DD4F88838091A0018F5F8093A0018130AA
S113061009F047C0809106028F3509F4D1C01092C9
S1130620A001809106028C3AF9F481E090E0909365
S11306300401809303011092A101E091A201F0E072
S1130640EE0FFF1FEE0FFF1FEE0FFF1FEA55FE4FC9
S11306508783809102018111B3C081E080930201FC
S113066082E080935302ACC0809106028A3209F082
S1130670A7C08091A1018F5F8093A101843008F00D
S11306809FC0E091A201F0E0EE0FFF1FEE0FFF1FED
S1130690EE0FFF1FEA55FE4F168281E0809317028A
S11306A08FC0823079F4E091A501F0E080910702D7
S11306B0EE0FFF1FEE0FFF1FEE0FFF1FEA51FE4F5D
S11306C081837EC0E091A501F0E0EE0FFF1FEE0FE5
S11306D0FF1FEE0FFF1FEA51FE4F9181891370C077
S11306E0E091A501F0E0EE0FFF1FEE0FFF1FEE0FEC
S11306F0FF1FEA51FE4FE181F0E0EB5FFD4F808187
S11307008F3E09F055C0E091A501F0E08091080208
S1130710EE0FFF1FEE0FFF1FEE0FFF1FEA51FE4FFC
S11307208083E091A501F0E0EE0FFF1FEE0FFF1FA5
S1130730EE0FFF1FEA51FE4F818190E004971816D7
S113074019065CF520E030E040E08091A501E82F37
S1130750F0E0D901A75FBD4F8C91EE0FFF1FEE0FA4
S1130760FF1FEE0FFF1FEA51FE4FE20FF31F8283BC
S11307704F5F242F30E0A091A501B0E0AA0FBB1F6A
S1130780AA0FBB1FAA0FBB1FAA51BE4F11968C9173
S113079090E0049728173907C4F28091A5018F5F70
S11307A083709091A401891749F08093A50106C034
S11307B08AE20E94420E81E0809317021092A00107
S11307C0DF91CF9108954091A401E091A401F0E05C
S11307D0EE0FFF1FEE0FFF1FEE0FFF1FEA51FE4F3C
S11307E06181E091A401F0E0EE0FFF1FEE0FFF1F07
S11307F0EE0FFF1FEA51FE4F808150E0440F551F5A
S1130800440F551F440F551F48515E4F0E94B706B1
S11308109091A4019F5F93709093A4010E94420E53
S113082081E08093170208952091A3012F5F277020
S11308309091A201291709F44EC0E091A301F0E0C0
S1130840EE0FFF1FEE0FFF1FEE0FFF1FEA55FE4FC7
S11308508083E091A301F0E0EE0FFF1FEE0FFF1F76
S1130860EE0FFF1FEA55FE4F84E0860F8183E0916F
S1130870A301F0E0EE0FFF1FEE0FFF1FEE0FFF1FAF
S1130880EA55FE4F1682E091A301F0E0EE0FFF1F40
S1130890EE0FFF1FEE0FFF1FEA55FE4F1782662370
S11308A0B1F0A42FB52F80E090E0E091A301F0E037
S11308B03D91EE0FFF1FEE0FFF1FEE0FFF1FEA55D6
S11308C0FE4FE80FF91F32830196861770F32093C9
S11308D0A30181E0089580E00895CF93E091A201FF
S11308E0F0E0EE0FFF1FEE0FFF1FEE0FFF1FEA55A4
S11308F0FE4F8781882339F08091A2018F5F877032
S11309008093A20184C0E091A201F0E0EE0FFF1FEA
S1130910EE0FFF1FEE0FFF1FEA55FE4F8681811178
S113092076C08FE50E94420EE091A201F0E0EE0F46
S1130930FF1FEE0FFF1FEE0FFF1FEA55FE4F8181D1
S11309400E94420EE091A201F0E0EE0FFF1FEE0FB5
S1130950FF1FEE0FFF1FEA55FE4F80810E94420EDB
S1130960E091A201F0E0EE0FFF1FEE0FFF1FEE0F6C
S1130970FF1FEA55FE4F818190E00497181619066F
S11309804CF520E030E0C0E08091A201E82FF0E0D7
S1130990EE0FFF1FEE0FFF1FEE0FFF1FEA55FE4F76
S11309A0E20FF31F82810E94420ECF5F2C2F30E0B2
S11309B0A091A201B0E0AA0FBB1FAA0FBB1FAA0FF0
S11309C0BB1FAA55BE4F11968C9190E0049728172F
S11309D03907D4F28FEE0E94420E809117028111E2
S11309E003C081E080931802E091A201F0E0EE0FD1
S11309F0FF1FEE0FFF1FEE0FFF1FEA55FE4F81E0B2
S1130A00868381E090E09093040180930301CF9169
S1130A100895811103C02B982C9A08952B9A2C9831
S1130A20089584B1886184B981E00E940905E1ECEC
S1130A30F0E0808180648083089580E00E9409054D
S1130A400E94570E08951F920F920FB60F92112411
S1130A502F933F934F935F936F937F938F939F93C2
S1130A60AF93BF93EF93FF9381E00E940905FF9139
S1130A70EF91BF91AF919F918F917F916F915F9112
S1130A804F913F912F910F900FBE0F901F9018958B
S1130A9084B1887F84B9ECE6F0E080818160808352
S1130AA0E8E6F0E0808182608083E9E6F0E080811E
S1130AB080638083EA9A089583B182FB882780F952
S1130AC00895E29AD99AEA9AE8E6F0E08081826091
S1130AD0808308951F920F920FB60F9211248F9363
S1130AE0EF93FF93189B0FC0EA98E8E6F0E080814B
S1130AF08D7F8083199B04C081E08093190203C019
S1130B0082E080931902FF91EF918F910F900FBEB5
S1130B100F901F9018951F920F920FB60F921124E9
S1130B208F939F93EF93FF9381E090E090931B0248
S1130B3080931A02EA98E8E6F0E080818D7F808352
S1130B40FF91EF919F918F910F900FBE0F901F9087
S1130B50189580911F028F5F80931F02833010F0DD
S1130B6010921F0290911F029B5F81E001C0880FC9
S1130B709A95EAF780931C0285B1806E85B995B188
S1130B8080911C028095892385B9E0911F02F0E0D1
S1130B90E05EFD4F808182B9089590E0E62FF0E099
S1130BA0EB5FFE4F2081FC01E05EFD4F2083442378
S1130BB039F0FC01E05EFD4F80818F7780830895DA
S1130BC0FC01E05EFD4F8081806880830895EF9290
S1130BD00F931F93CF93DF93C82F162F642FD22F19
S1130BE04E2D80E00E94CD05402F612F81E00E94B0
S1130BF0CD054D2F6C2F82E00E94CD05DF91CF9162
S1130C001F910F91EF900895CF93DF939C012D597D
S1130C103F4F2B34344068F5EC01992354F440E001
S1130C206DE282E00E94CD05882799278C1B9D0BDD
S1130C300EC064E670E00E949810D82FC92F605D42
S1130C407F4F40E082E00E94CD058D2F9C2F6AE00B
S1130C5070E00E949810EC01605D7F4F40E081E0FD
S1130C600E94CD05BE01605D7F4F40E080E00E94A0
S1130C70CD05DF91CF91089584B1806E84B98FEF53
S1130C8081B98BE790E00E9404060895EF920F93D8
S1130C9080915302843071F018F4813031F04DC0EA
S1130CA08630E9F0803199F148C080914A028093FE
S1130CB04C0243C00E945C05882329F080914F02B6
S1130CC08093510208C08091510280934F02809119
S1130CD0510280934E0283E0809353022EC00E94FF
S1130CE05C05882341F080914F028093510283E098
S1130CF08093530222C08091510280934F028091CD
S1130D00510280934E0285E08093530216C0809175
S1130D10450280934602809146028F3F49F4E12CBC
S1130D2000E020E046E666E68FE60E94E70505C09F
S1130D308091460290E00E9404060F91EF9008957E
S1130D40CF93DF93809153028C3071F4C9E8D1E0E2
S1130D50488164E180E00E94640149814F704064ED
S1130D6065E180E00E946401DF91CF910895813BA9
S1130D7081F5809153028430A9F4FA0180810E94A4
S1130D808D10815090915102891308C090915102A5
S1130D9081E08927809350028CEA08958093510260
S1130DA08CEA089580915302863049F4E9E8F1E031
S1130DB09081DA018C91892780838CEA089580914F
S1130DC05302883009F04BC082E0809353028CEACE
S1130DD00895823B61F580915302843041F481E0AF
S1130DE080934D0282E0809353028CEA08958091AF
S1130DF05302863099F4FA018081982F9F7039F05C
S1130E00E9E8F1E09181892781838CEA08951092C1
S1130E104D0282E0809353028CEA0895809153023C
S1130E208830F9F482E0809353028CEA0895843B7D
S1130E30D1F480915302843021F0809153028630A2
S1130E4029F488E0809353028CEA08958091530238
S1130E50883059F482E0809353028CEA08958CEA36
S1130E6008958CEA08958AE208958CEA0895E5E2EB
S1130E70F2E080E0909199012281291302C08093CD
S1130E8051028F5F34968830A9F70895EF92FF924C
S1130E900F931F93CF93DF9304E213E0C0E0D0E0FD
S1130EA00F2EF9E8EF2EF1E0FF2EF02DF7018081EF
S1130EB090E00C2E02C0959587950A94E2F780FF86
S1130EC009C0C8010E948F01813061F0C8010E94ED
S1130ED0920108C0C8010E948F01882319F0C8013B
S1130EE00E94CF0121960C5F1F4FC830D105F1F647
S1130EF004E113E0C0E0D0E00F2EF9E8EF2EF1E0BA
S1130F00FF2EF02DF701818190E00C2E02C0959503
S1130F1087950A94E2F780FF09C0C8010E948F01F7
S1130F20813061F0C8010E94920108C0C8010E948A
S1130F308F01882319F0C8010E94CF0121960C5F0C
S1130F401F4FC430D105F1F6DF91CF911F910F915E
S1130F50FF90EF900895EF920F93E09153028E2F3C
S1130F6090E0FC013197E031F10508F00AC2E25C3F
S1130F70FF4F0C94CE1080911902833029F4809194
S1130F804C0280934A02FDC180911902853071F4AC
S1130F9080914C0280934A0260914A0280E090E082
S1130FA00E94241182E080935302EBC180911902C4
S1130FB0813059F480914C02803108F0E2C1809173
S1130FC04C028F5F80934C02DCC180911902823005
S1130FD009F0D7C180914C02882309F4D2C18091D1
S1130FE04C02815080934C02CCC180911902833011
S1130FF041F480914F028093510283E08093530225
S1131000C0C180911902853041F480914F028093D0
S1131010510289E080935302B4C180911902813056
S113102081F480914F02873028F480914F028F5FC2
S113103080934F0281E090E090935902809358028C
S1131040A0C180911902823009F09BC180914F02A6
S1131050882329F080914F02815080934F0281E0D0
S113106090E090935902809358028BC180911902A9
S11310708330C9F480914902811104C082E08093D5
S113108053027FC180914902813021F48BE0809327
S1131090530277C180914902823009F072C18DE018
S11310A0809353026EC180911902853009F469C19D
S11310B080911902813059F480914902823008F0FC
S11310C060C1809149028F5F809349025AC1809127
S11310D01902823009F055C180914902882309F42C
S11310E050C1809149028150809349024AC1809144
S11310F01902833029F580912402883078F42091F4
S11311002402E9E8F1E081E090E002C0880F991F31
S11311102A95E2F79081892780830FC020912402C9
S1131120E9E8F1E0285081E090E002C0880F991FBF
S11311302A95E2F79181892781830E94460721C17C
S113114080911902853061F56091510270E0660F5B
S1131150771F660F771F6C597F4F42E050E089E894
S113116091E00E941A11E0915102F0E0EE0FFF1F8E
S1131170EE0FFF1FEB5DFD4FA9E8B1E08C9180837A
S1131180E0915102F0E0EE0FFF1FEE0FFF1FEB5D49
S1131190FD4F11968C91818389E080935302F1C0B5
S11311A080911902813059F4809124028B3008F027
S11311B0E8C0809124028F5F80932402E2C0809172
S11311C01902823009F0DDC080912402882309F4D9
S11311D0D8C080912402815080932402D2C080918F
S11311E01902833021F48FE080935302CAC08091A6
S11311F01902853021F489E080935302C2C08091A2
S11312001902813059F480934702E12C00E020E078
S113121044E765E78FE60E94E705B3C080911902B1
S1131220823009F0AEC010924702E12C00E020E0C9
S113123040E26EE689E60E94E705A3C080911902A8
S1131240833049F410925902109258028091460258
S11312508093450296C0809119028530D9F580911A
S1131260470281111AC0E091510280914602F0E0D8
S1131270EE0FFF1FEE0FFF1FEB5DFD4F82836091AA
S113128046028091510290E0880F991F880F991FA0
S11312908A599F4F0E94241119C0E09151028091F4
S11312A04602F0E0EE0FFF1FEE0FFF1FEB5DFD4F58
S11312B08383609146028091510290E0880F991FC8
S11312C0880F991F89599F4F0E9424118DE08093A4
S11312D0530257C080911902813011F58091460262
S11312E08F3729F0809146028F5F80934602809168
S11312F046028F3F49F4E12C00E020E046E666E632
S11313008FE60E94E70505C08091460290E00E94A6
S1131310040681E090E0909359028093580231C012
S113132080911902823069F580914602882324F065
S113133080914602811104C08FEF8093460209C058
S113134080914602882329F080914602815080933F
S11313504602809146028F3F49F4E12C00E020E0F0
S113136046E666E68FE60E94E70505C080914602E0
S113137090E00E94040681E090E0909359028093EB
S113138058020F91EF900895CF93DF9300D0CDB71B
S1131390DEB7E0915102F0E0EE0FFF1FEE0FFF1FEA
S11313A0EB5DFD4F80819181A281B381809389019E
S11313B090938A01A0938B01B0938C01E091510228
S11313C0F0E0EE0FFF1FEE0FFF1FEB5DFD4F83817B
S11313D08F3F61F0E0915102F0E0EE0FFF1FEE0F3E
S11313E0FF1FEB5DFD4F83810E94B6021A821982B2
S11313F0AE014F5F5F4F62E083ED0E9414044DE83D
S113140051E064E087ED0E9414049091510281E060
S113141001C0880F9A95EAF78983AE014F5F5F4F49
S113142061E080ED0E9414048091510290E00196E5
S11314300E9404060E9446070F900F90DF91CF91FF
S11314400895CF93DF9300D000D0CDB7DEB71982D3
S11314501A821B821C82AE014F5F5F4F62E083EDF4
S11314600E94140449E851E061E080ED0E941404F4
S113147040918A0150E0FE01319680E090E07FE5E2
S11314806FE29A01082E02C0359527950A94E2F777
S113149020FF02C0608301C07083019631968430BE
S11314A0910579F7AE014F5F5F4F64E087ED0E94CD
S11314B014040E9446070F900F900F900F90DF9135
S11314C0CF910895EF920F93E09153028E2F90E005
S11314D08031910508F03BC2FC01E25BFF4F0C94A4
S11314E0CE1040E250E064E670E085E292E00E94B3
S11314F0021180E090E00E94121180934A028091D0
S11315004A02813140F010924A0260914A0280E01E
S113151090E00E9424110E945C05882311F18CE460
S113152093E00E94CF0188E493E00E94CF0184E419
S113153093E00E94920180914A02811109C0E12C3A
S113154000E020E04EE66DE68FE60E94E70505C068
S113155080914A0290E00E94040681E08093530245
S1131560F6C182E080935302F2C190914C028091C3
S11315704B029817C1F080914C02811109C0E12CF3
S113158000E020E04EE66DE68FE60E94E70505C028
S113159080914C0290E00E94040681E090E09093D8
S11315A059028093580280914C0280934B02CFC120
S11315B08091510290E001960E9404068CE493E02D
S11315C00E94920188E493E00E94CF0184E493E0B6
S11315D00E94CF0180914D02811104C083E0809369
S11315E05302B5C180914D02813009F0B0C185E04C
S11315F080935302ACC110924D0284E08093530255
S113160010925902109258029091510281E0892758
S113161080935002909151028091500298130E943D
S1131620C40990914F0280914E02981709F48FC11A
S113163080914F0290E001960E940406E0914F02CF
S1131640F0E0EE0FFF1FEE0FFF1FEB5DFD4F8081FB
S11316509181A281B3818093890190938A01A0939F
S11316608B01B0938C010E94460771C1E12C00E00C
S113167020E043E46CE48DE40E94E70581E080937C
S11316804D0296E090935302109259021092580220
S11316909091890189278093850190918901809196
S11316A08501981311C090918A0180918601981345
S11316B00BC090918B0180918701981305C0909184
S11316C08C018091880198130E94210A90914F0205
S11316D080914E02981709F43AC180914F0290E02C
S11316E001960E940406E0914F02F0E0EE0FFF1F06
S11316F0EE0FFF1FEB5DFD4F80819181A281B381CD
S11317008093890190938A01A0938B01B0938C01FB
S11317100E9446071CC19091490281E08927809369
S113172048020E94C4098AE08093530290914902BE
S113173080914802981791F18091490281110DC05E
S11317408CE493E00E94300288E493E00E94CF018D
S113175084E493E00E94CF0121C08091490281304A
S113176069F48CE493E00E94CF0188E493E00E9442
S1131770300284E493E00E94CF0110C080914902BA
S1131780823061F48CE493E00E94CF0188E493E01A
S11317900E94CF0184E493E00E94300280914902C8
S11317A080934802D4C08CE493E00E94CF0188E483
S11317B093E00E94920184E493E00E94CF01E091BF
S11317C05102F0E0EE0FFF1FEE0FFF1FEB5DFD4F28
S11317D080819181A281B3818093890190938A0150
S11317E0A0938B01B0938C011092240281E080932A
S11317F023028CE08093530290912402809123026F
S1131800981789F180912402883098F480912402F9
S113181041E050E002C0440F551F8A95E2F764E1AD
S113182080E00E94640140E465E180E00E9464017C
S113183014C040E064E180E00E94640180912402CD
S1131840885041E050E002C0440F551F8A95E2F7EA
S1131850406465E180E00E94640181E090E090933F
S113186056028093550280912402809323026FC014
S11318708CE493E00E94CF0188E493E00E94CF01BE
S113188084E493E00E94920180914702811109C08F
S1131890E12C00E020E040E26EE689E60E94E705E4
S11318A008C0E12C00E020E044E765E78FE60E94F1
S11318B0E7058EE0809353024AC08091470281116C
S11318C019C0E0915102F0E0EE0FFF1FEE0FFF1F71
S11318D0EB5DFD4F828180934602E0915102F0E07E
S11318E0EE0FFF1FEE0FFF1FEB5DFD4F8281809314
S11318F0450218C0E0915102F0E0EE0FFF1FEE0F19
S1131900FF1FEB5DFD4F838180934602E0915102FE
S1131910F0E0EE0FFF1FEE0FFF1FEB5DFD4F838125
S113192080934502809146028F3F49F4E12C00E008
S113193020E046E666E68FE60E94E70505C0809152
S1131940460290E00E94040680E180935302809155
S113195051028093500280915302809352028091ED
S1131960890190918A01A0918B01B0918C0180939F
S1131970850190938601A0938701B093880180919B
S11319804F0280934E020F91EF90089584B58260C8
S113199084BD16BC8BE987BDEEE6F0E080818260F1
S11319A0808385B5846085BD08959B01AC01A8EE54
S11319B0B3E00E94D4102DEC37E040E050E00E94E8
S11319C0AC10CA01B90108951F920F920FB60F927D
S11319D011242F933F938F939F938091580290915A
S11319E05902892B99F080915802909159020196DD
S11319F090935902809358028D3D954038F010928F
S1131A0059021092580281E0809357028091550246
S1131A1090915602892B99F080915502909156022B
S1131A20019690935602809355028739910538F0B8
S1131A30109256021092550281E0809354028091D4
S1131A401702882361F0809117028F5F8093170239
S1131A50843028F01092170281E08093180280915C
S1131A600301909104010196909304018093030172
S1131A70893E934040F081E090E09093040180938C
S1131A8003018093160280911E028F5F80931E02D1
S1131A90833028F010921E0281E080931D02809111
S1131AA095019091960101969093960180939501EA
S1131AB020910001309101012817390778F4109220
S1131AC096011092950180919301811104C0809137
S1131AD09201882319F081E08093940180911A0285
S1131AE090911B02892BB9F180911A0290911B02EB
S1131AF0019690931B0280931A0280911A0290918E
S1131B001B028935924068F01A9B04C085E08093DB
S1131B10190202C01092190210921B0210921A02AA
S1131B201AC080911A0290911B02CD97A0F0809167
S1131B301902882369F00FC083E080931902109280
S1131B401B0210921A0207C084E08093190203C09A
S1131B501A99FACFF1CF9F918F913F912F910F90C6
S1131B600FBE0F901F901895CF93DF93D62FC42FDD
S1131B70519A599A1092A3021092A2021092A102B1
S1131B801092A002A0E0B0E0880F991FAA1FBB1F0B
S1131B90880F991FAA1FBB1F9C01AD01220F331F81
S1131BA0441F551F220F331F441F551F60E07DE261
S1131BB081E391E00E94AC10215031093093C500BB
S1131BC02093C400E2ECF0E080818F738083D230F4
S1131BD021F480818860808305C0E2ECF0E080819C
S1131BE0877F8083C23049F4E2ECF0E080818F7E0D
S1131BF080838081806280830DC0C33031F4E2EC45
S1131C00F0E080818063808305C0E2ECF0E08081B5
S1131C108F7C8083E2ECF0E0808186608083E1EC5D
S1131C20F0E08081806A8083808188618083DF9195
S1131C30CF9108959091A1028091A002981791F0FC
S1131C40E091A002EF5FEF71E093A002F0E0EC55A9
S1131C50FD4F208180919F0290E0982F8827820F6A
S1131C60911D089580E091E008958091A102209152
S1131C70A00290E04F96821B91096FE170E00E94F0
S1131C80981008959091A3029F5F9F712091A202E2
S1131C90921751F0E92FF0E0EC53FD4F80839093BD
S1131CA0A30281E090E0089580E090E00895E1ECE3
S1131CB0F0E080818062808308951F920F920FB6B6
S1131CC00F9211242F938F939F93EF93FF938091FF
S1131CD0C0002091C6008770E091A102EF5FEF7110
S1131CE09091A002E91739F0E093A102F0E0EC55DD
S1131CF0FD4F208301C082E080939F02FF91EF910A
S1131D009F918F912F910F900FBE0F901F90189558
S1131D101F920F920FB60F9211248F939F93EF93FC
S1131D20FF939091A3028091A202981769F0E09129
S1131D30A202EF5FEF71E093A202F0E0EC53FD4FDB
S1131D4080818093C60005C0E1ECF0E080818F7D46
S1131D508083FF91EF919F918F910F900FBE0F9011
S1131D601F901895CF93DF93D62FC42F539A5B9A65
S1131D7010925E0210925D0210925C0210925B025D
S1131D80A0E0B0E0880F991FAA1FBB1F880F991FFE
S1131D90AA1FBB1F9C01AD01220F331F441F551FF7
S1131DA0220F331F441F551F60E07DE281E391E061
S1131DB00E94AC10215031093093CD002093CC0007
S1131DC0EAECF0E080818F738083D23021F480814B
S1131DD08860808305C0EAECF0E08081877F80839F
S1131DE0C23031F4EAECF0E08081806280830DC07F
S1131DF0C33031F4EAECF0E080818063808305C075
S1131E00EAECF0E080818F7C8083EAECF0E0808172
S1131E1086608083E9ECF0E08081806A8083808141
S1131E2088618083DF91CF91089590915C028091C5
S1131E305B02981791F0E0915B02EF5FEF71E09322
S1131E405B02F0E0E15AFD4F208180915A0290E05C
S1131E50982F8827820F911D089580E091E00895BE
S1131E6020915E022F5F2F7190915D022917E1F39B
S1131E70E22FF0E0E158FD4F808320935E02E9EC0D
S1131E80F0E08081806280830895CF93DF93EC013A
S1131E908881882331F021960E94300F8991811125
S1131EA0FBCFDF91CF91089580915C0220915B027A
S1131EB090E04F96821B91096FE170E00E949810A8
S1131EC008951F920F920FB60F9211242F938F93A0
S1131ED09F93EF93FF938091C8002091CE00877069
S1131EE0E0915C02EF5FEF7190915B02E91739F0CA
S1131EF0E0935C02F0E0E15AFD4F208301C082E0F0
S1131F0080935A02FF91EF919F918F912F910F909F
S1131F100FBE0F901F9018951F920F920FB60F923D
S1131F2011248F939F93EF93FF9390915E0280917E
S1131F305D02981769F0E0915D02EF5FEF71E09345
S1131F405D02F0E0E158FD4F80818093CE0005C032
S1131F50E9ECF0E080818F7D8083FF91EF919F9188
S1131F608F910F900FBE0F901F901895EF92FF92D4
S1131F701F93CF93DF93CDB7DEB764970FB6F89472
S1131F80DEBF0FBECDBF25E041E060E0CE0141964B
S1131F900E940C0289899A89AB89BC8980934C037D
S1131FA090934D03A0934E03B0934F0326E041E07A
S1131FB060E0CE010D960E940C028D859E85AF8552
S1131FC0B8898093480390934903A0934A03B0933C
S1131FD04B0327E041E060E0CE0109960E940C0229
S1131FE089859A85AB85BC8580934403909345038A
S1131FF0A0934603B09347030F2EF4E2EF2EF3E0D1
S1132000FF2EF02D10E0212F40E060E0CE01059678
S11320100E940C028D819E81AF81B885F701819366
S11320209193A193B1937F011F5F183061F70F2E35
S1132030F4E1EF2EF3E0FF2EF02D10E0212F41E02C
S113204060E0CE0101960E940C0289819A81AB81E5
S1132050BC81F70181939193A193B1937F011F5F99
S1132060143061F788E691E00E94520264960FB63C
S1132070F894DEBF0FBECDBFDF91CF911F91FF90CB
S1132080EF9008950F931F93CF93DF938CE493E025
S11320900E948E0188E493E00E948E0184E493E020
S11320A00E948E01C4E2D3E004E413E0CE010E9456
S11320B08E0124960C171D07C9F784E193E00E9452
S11320C08E0188E193E00E948E018CE193E00E94EE
S11320D08E0180E293E00E948E01C4EFD2E004E11D
S11320E013E0CE010E948E012496C017D107C9F7D0
S11320F084EE92E00E948E0188EE92E00E948E01AE
S11321008CEE92E00E948E0180EF92E00E948E019C
S1132110DF91CF911F910F910895882331F090E0C2
S113212086959F5F8111FCCF01C090E0892F0895AF
S113213097FB072E16F4009407D077FD09D00E9470
S1132140DF1007FC05D03EF4909581959F4F0895CC
S1132150709561957F4F0895A1E21A2EAA1BBB1BAF
S1132160FD010DC0AA1FBB1FEE1FFF1FA217B3075F
S1132170E407F50720F0A21BB30BE40BF50B661F75
S1132180771F881F991F1A9469F760957095809539
S113219090959B01AC01BD01CF010895EE0FFF1F87
S11321A00590F491E02D09940E94F310A59F900DE1
S11321B0B49F900DA49F800D911D11240895AA1B16
S11321C0BB1B51E107C0AA1FBB1FA617B70710F01E
S11321D0A61BB70B881F991F5A95A9F78095909550
S11321E0BC01CD010895A29FB001B39FC001A39F7C
S11321F0700D811D1124911DB29F700D811D11243C
S1132200911D0895DC01CB01FC01F999FECF06C0B4
S1132210F2BDE1BDF89A319600B40D9241505040A0
S1132220B8F70895F999FECF92BD81BDF89A992720
S113223080B50895DC01CB0103C02D910E942511C6
S113224041505040D0F70895262FF999FECF1FBA78
S113225092BD81BD20BD0FB6F894FA9AF99A0FBECB
S10B226001960895F894FFCFE4
S11322686400010100FFFFFFFFFFFFFFFFFFFFFF07
S1132278FFFFFFFFFFFFFFFFFFFFFFFFFFFFFFFF62
S1132288FFFFFFFFFFFFFFFFFFFFFFFFFFC6F0FF9A
S1132298FFFFBFFFADC0F9A4B0999282F88090FF08
S11322A8FFFFFFFFFFFF8883C6A1868EC289F9E17D
S11322B88AC7EAABC08C98AFD287C1C1D58991E4EB
S11322C8C69BF0FFF7FF8883A7A1868EC28BFBE12C
S11322D88AC7EAABA38C98AFD287E3E3C18991E4B8
S11322E8FFFFFFFFFF0000FFFF0000FFFF507265C4
S10522F82000C0
S9030000FC
