S02200005261636B5F4C6F6F70436F6E74726F6C6C65725F4D41535445522E7372656339
S11300000C945F000C9487000C9487000C945C059E
S11300100C9487000C943B050C9487000C94870087
S11300200C9487000C9487000C9487000C94870030
S11300300C9487000C9487000C9487000C94870020
S11300400C94930C0C9487000C9487000C948700F8
S11300500C940C0E0C94370E0C94F4040C9487003E
S11300600C9487000C9487000C9487000C948700F0
S11300700C94100F0C943B0F0C948700980799096B
S11300809909D2079909D2079909990999090E087A
S113009099094F089909C7089909F608F309370A15
S11300A05A0A7D0A950AC70AE90A560C560C2D0B02
S11300B0450B820BAB0BE70B560C0C0CF10F112408
S11300C01FBECFEFD8E0DEBFCDBF11E0A0E0B1E0AE
S11300D0E6ECF1E202C005900D92AE33B107D9F718
S11300E022E0AEE3B1E001C01D92AC3FB207E1F7FC
S11300F010E0CFE5D0E004C02197FE010E947D10FE
S1130100CE35D107C9F70E94DC000C94E1100C94A1
S113011000001092B9008CE58093B800089594EA29
S11301209093BC00ECEBF0E090819923ECF7909174
S1130130B900987F983011F09031A1F48093BB00FE
S113014084E88093BC00ECEBF0E080818823ECF73A
S11301509091B900987F983139F081E0903429F476
S113016080E0089581E0089580E0089584E9809313
S1130170BC00ECEBF0E0808184FDFDCF089580931A
S1130180BB0084E88093BC00ECEBF0E08081882322
S1130190ECF79091B900987F81E0983209F480E0FF
S11301A0089584E88093BC00ECEBF0E08081882320
S11301B0ECF78091BB0008950E94750C0E948900A1
S11301C040E062E080E09BE40E94630D40E061E077
S11301D082E19AE70E94610E0E94E2040E941905DE
S11301E00E9425060E94650F78940E94030F892BB4
S11301F011F00E947C0280914401882321F0109226
S113020044010E9414070E94E40D892B19F00E94F6
S1130210F202F9CF0E94CE0281110E94B4030E941F
S1130220D70281110E943E048091C401882321F0E9
S11302301092C4010E94EE048091C201882391F0BF
S11302401092C2010E94D702882329F01092020161
S11302500E94E00207C04091FF0150E061E085ED9B
S11302600E94E5038091C901882321F01092C901FD
S11302700E947A0580914001882329F01092400160
S113028080E00E945D028091C501882321F0809165
S1130290C501843099F480910302882321F01092DF
S11302A003020E942F0680910002882321F01092FD
S11302B000020E9489060E94E40997CF0E948807E1
S11302C01092C5010E943205E6CFCF93DF93D62F5B
S11302D0C42F8062880F0E948F008D2F0E94BF0060
S11302E08C2F0E94BF000E94B600DF91CF91089529
S11302F0CF93DF93D62F8062C82FCC0F8C2F0E9410
S11303008F008D2F0E94BF000E94B6008C2F816049
S11303100E948F000E94D100DF91CF91089508952B
S1130320FC01838108951F93CF93DF93EC018981AE
S1130330811110C020913F0181E090E00A8002C049
S1130340880F991F0A94E2F78095822380933F01D6
S113035014E10FC020913E0181E090E00A8002C0C8
S1130360880F991F0A94E2F78095822380933E01B7
S113037015E1612F88810E94780141E050E00A80F4
S113038002C0440F551F0A94E2F7482B612F88815D
S11303900E94650181E08B83DF91CF911F910895C5
S11303A01F93CF93DF93EC018981811110C02091B9
S11303B03F0181E090E00A8002C0880F991F0A94EF
S11303C0E2F78095822380933F0114E10FC02091CE
S11303D03E0181E090E00A8002C0880F991F0A94D0
S11303E0E2F78095822380933E0115E1612F888195
S11303F00E94780141E050E00A8002C0440F551F7A
S11304000A94E2F740954823612F88810E94650190
S11304101B82DF91CF911F9108951F93CF93DF9398
S1130420EC01862F688349832A8311E0411101C0BE
S113043010E0612F0E94780141E050E00A8002C080
S1130440440F551F0A94E2F740954823612F888191
S11304500E946501CE010E94D001DF91CF911F91CE
S11304600895FC0182E08383818181110EC0209173
S11304703F0181E090E0028002C0880F991F0A9436
S1130480E2F7822B80933F01089520913E0181E0A1
S113049090E0028002C0880F991F0A94E2F7822B31
S11304A080933E010895BC0180E090E00E94840C9A
S11304B0709301016093000108951F93CF93DF931C
S11304C0C82F64E10E947801182F65E18C2F0E94E7
S11304D0780140913F01D0913E01D827412764E142
S11304E08C2F0E9465014D2F65E18C2F0E946501C0
S11304F0DF91CF911F910895CF93DF93C091430172
S1130500D0E00E94C40EC75BDE4F88838091430114
S1130510811118C080914901807F803C29F5809128
S1130520F601882359F0209149018091F6012F703A
S113053030E090E0019728173907B1F081E080930B
S1130540430112C090E0FC01E75BFE4F20812223AF
S11305504CF0FC01E75BFE4F80818093450181E014
S11305608093440110924301DF91CF91089590EC60
S1130570909346019091F601992341F09091F601F0
S1130580E6E4F1E020819150922B9083E6E4F1E0DF
S113059081831282CF010E94F40E089520915101AB
S11305A09091500181E0291301C080E008952091C9
S11305B04F0190914E0181E0291301C080E008951C
S11305C080914F0180934E01E0914F01F0E0EE0FD6
S11305D0FF1FEE0FFF1FEE0FFF1FEE5AFE4F81E0CD
S11305E087830895CF93DF9381E08093C301C09103
S11305F04C01D0E00E94C90DCE54DE4F8883809117
S11306004C018F5F80934C01813009F047C0809189
S1130610B2018F3509F4A5C010924C018091B2014A
S11306208C3AF9F481E090E0909304018093030103
S113063010924D01E0914E01F0E0EE0FFF1FEE0F1E
S1130640FF1FEE0FFF1FEE5AFE4F878380910201BA
S1130650811187C081E08093020182E08093FF01D1
S113066080C08091B2018A3209F07BC080914D0133
S11306708F5F80934D01843008F073C0E0914E0188
S1130680F0E0EE0FFF1FEE0FFF1FEE0FFF1FEE5AFD
S1130690FE4F168281E08093C30163C0823079F4F7
S11306A0E0915101F0E08091B301EE0FFF1FEE0FD6
S11306B0FF1FEE0FFF1FEE56FE4F818352C0E091E5
S11306C05101F0E0EE0FFF1FEE0FFF1FEE0FFF1FB3
S11306D0EE56FE4F9181891344C0E0915101F0E040
S11306E0EE0FFF1FEE0FFF1FEE0FFF1FEE56FE4F24
S11306F0E181F0E0EF54FE4F80818F3E51F5E091AF
S11307005101F0E0A2EBB1E012968C911297EE0F3A
S1130710FF1FEE0FFF1FEE0FFF1FEE56FE4F8083ED
S1130720E0915101F0E013968C91EE0FFF1FEE0F54
S1130730FF1FEE0FFF1FEE56FE4F82838091510183
S11307408F5F837090915001891749F08093510114
S113075006C08AE20E94F10D81E08093C3011092E9
S11307604C01DF91CF91089540915001E0915001E7
S1130770F0E0EE0FFF1FEE0FFF1FEE0FFF1FEE5610
S1130780FE4F6181E0915001F0E0EE0FFF1FEE0F8C
S1130790FF1FEE0FFF1FEE56FE4F808150E0440F07
S11307A0551F440F551F440F551F4C565E4F0E9452
S11307B0A006909150019F5F9370909350010E9406
S11307C0F10D81E08093C301089520914F012F5FC3
S11307D0277090914E01291709F44EC0E0914F0102
S11307E0F0E0EE0FFF1FEE0FFF1FEE0FFF1FEE5A9C
S11307F0FE4F8083E0914F01F0E0EE0FFF1FEE0FFC
S1130800FF1FEE0FFF1FEE5AFE4F84E0860F818319
S1130810E0914F01F0E0EE0FFF1FEE0FFF1FEE0F10
S1130820FF1FEE5AFE4F1682E0914F01F0E0EE0FEB
S1130830FF1FEE0FFF1FEE0FFF1FEE5AFE4F178232
S11308406623B1F0A42FB52F80E090E0E0914F0132
S1130850F0E03D91EE0FFF1FEE0FFF1FEE0FFF1FA5
S1130860EE5AFE4FE80FF91F32830196861770F394
S113087020934F0181E0089580E00895CF93E091A3
S11308804E01F0E0EE0FFF1FEE0FFF1FEE0FFF1FF4
S1130890EE5AFE4F8781882339F080914E018F5F95
S11308A0877080934E0184C0E0914E01F0E0EE0F1A
S11308B0FF1FEE0FFF1FEE0FFF1FEE5AFE4F868144
S11308C0811176C08FE50E94F10DE0914E01F0E0B8
S11308D0EE0FFF1FEE0FFF1FEE0FFF1FEE5AFE4F2E
S11308E081810E94F10DE0914E01F0E0EE0FFF1FB7
S11308F0EE0FFF1FEE0FFF1FEE5AFE4F80810E9486
S1130900F10DE0914E01F0E0EE0FFF1FEE0FFF1F1F
S1130910EE0FFF1FEE5AFE4F818190E004971816E8
S113092019064CF520E030E0C0E080914E01E82F3C
S1130930F0E0EE0FFF1FEE0FFF1FEE0FFF1FEE5A4A
S1130940FE4FE20FF31F82810E94F10DCF5F2C2F27
S113095030E0A0914E01B0E0AA0FBB1FAA0FBB1F4D
S1130960AA0FBB1FAE5ABE4F11968C9190E004970C
S113097028173907D4F28FEE0E94F10D8091C3013C
S1130980811103C081E08093C401E0914E01F0E045
S1130990EE0FFF1FEE0FFF1FEE0FFF1FEE5AFE4F6D
S11309A081E0868381E090E09093040180930301C9
S11309B0CF910895811103C02B982C9A08952B9AF6
S11309C02C98089584B1886184B981E00E94DA0486
S11309D0E1ECF0E0808180648083089580E00E94EF
S11309E0DA040E94060E08951F920F920FB60F921A
S11309F011242F933F934F935F936F937F938F9320
S1130A009F93AF93BF93EF93FF9381E00E94DA0427
S1130A10FF91EF91BF91AF919F918F917F916F91D2
S1130A205F914F913F912F910F900FBE0F901F90A8
S1130A30189584B1887F84B9ECE6F0E08081816008
S1130A408083E8E6F0E0808182608083E9E6F0E07C
S1130A50808180638083EA9A089583B182FB88272A
S1130A6080F90895E29AD99AEA9AE8E6F0E080815A
S1130A708260808308951F920F920FB60F92112403
S1130A808F93EF93FF93189B0FC0EA98E8E6F0E08A
S1130A9080818D7F8083199B04C081E08093C50190
S1130AA003C082E08093C501FF91EF918F910F9075
S1130AB00FBE0F901F9018951F920F920FB60F92B2
S1130AC011248F939F93EF93FF9381E090E0909391
S1130AD0C7018093C601EA98E8E6F0E080818D7F43
S1130AE08083FF91EF919F918F910F900FBE0F9094
S1130AF01F9018958091CB018F5F8093CB01833039
S1130B0010F01092CB019091CB019B5F81E001C06A
S1130B10880F9A95EAF78093C80185B1806E85B9EC
S1130B2095B18091C8018095892385B9E091CB0165
S1130B30F0E0E453FE4F808182B90895E0EDE60FC2
S1130B40EA30A8F09FEB960F9A3118F4E9ECE60F1F
S1130B500EC09FE9960F9A3118F4E9EAE60F07C030
S1130B606D3221F06032D9F4E5E201C0E4E290E0B4
S1130B70F0E0EB5FFE4F2081FC01E453FE4F208345
S1130B80442339F0FC01E453FE4F80818F77808346
S1130B900895FC01E453FE4F8081806880830895AA
S1130BA0EF920F931F93CF93DF93C82F162F642FC9
S1130BB0D22F4E2D80E00E949E05402F612F81E0B0
S1130BC00E949E054D2F6C2F82E00E949E05DF91AE
S1130BD0CF911F910F91EF900895CF93DF939C01D4
S1130BE02D593F4F2B34344068F5EC01992354F4CC
S1130BF040E06DE282E00E949E05882799278C1BC5
S1130C009D0B0EC064E670E00E944710D82FC92FD8
S1130C10605D7F4F40E082E00E949E058D2F9C2FF7
S1130C206AE070E00E944710EC01605D7F4F40E095
S1130C3081E00E949E05BE01605D7F4F40E080E040
S1130C400E949E05DF91CF91089584B1806E84B98E
S1130C508FEF81B98BE790E00E94ED050895EF9244
S1130C600F938091FF01843071F018F4813031F0DA
S1130C704DC08630E9F0803199F148C08091F60189
S1130C808093F80143C00E942D05882329F08091A8
S1130C90FB018093FD0108C08091FD018093FB015D
S1130CA08091FD018093FA0183E08093FF012EC0BF
S1130CB00E942D05882341F08091FB018093FD0162
S1130CC083E08093FF0122C08091FD018093FB01AA
S1130CD08091FD018093FA0185E08093FF0116C0A5
S1130CE08091F1018093F2018091F2018F3F49F4E8
S1130CF0E12C00E020E046E666E68FE60E94D0059F
S1130D0005C08091F20190E00E94ED050F91EF90F3
S1130D100895CF93DF938091FF018C3071F4CFE27B
S1130D20D1E0488164E180E00E94650149814F700F
S1130D30406465E180E00E946501DF91CF910895F0
S1130D40813B21F58091FF01843049F4FA018081CF
S1130D500E943C1081508093FD018CEA089580919B
S1130D60FF01863049F4EFE2F1E09081DA018C91E1
S1130D70892780838CEA08958091FF01883009F0E7
S1130D804BC082E08093FF018CEA0895823B61F5B9
S1130D908091FF01843041F481E08093F90182E085
S1130DA08093FF018CEA08958091FF01863099F4C5
S1130DB0FA018081982F9F7039F0EFE2F1E0918180
S1130DC0892781838CEA08951092F90182E0809347
S1130DD0FF018CEA08958091FF018830F9F482E0E4
S1130DE08093FF018CEA0895843BD1F48091FF0144
S1130DF0843021F08091FF01863029F488E08093CB
S1130E00FF018CEA08958091FF01883059F482E053
S1130E108093FF018CEA08958CEA08958CEA089582
S1130E208AE208958CEA0895E1EDF1E080E0909182
S1130E3045012281291302C08093FD018F5F3496FE
S1130E408830A9F70895EF92FF920F931F93CF93E1
S1130E50DF9300ED12E0C0E0D0E00F2EFFE2EF2EB2
S1130E60F1E0FF2EF02DF701808190E00C2E02C0FE
S1130E70959587950A94E2F780FF09C0C8010E94FE
S1130E809001813061F0C8010E94930108C0C8013B
S1130E900E949001882319F0C8010E94D001219674
S1130EA00C5F1F4FC830D105F1F600EC12E0C0E032
S1130EB0D0E00F2EFFE2EF2EF1E0FF2EF02DF70130
S1130EC0818190E00C2E02C0959587950A94E2F7F3
S1130ED080FF09C0C8010E949001813061F0C801FF
S1130EE00E94930108C0C8010E949001882319F050
S1130EF0C8010E94D00121960C5F1F4FC430D10558
S1130F00F1F6DF91CF911F910F91FF90EF9008952B
S1130F10EF920F93E091FF018E2F90E0FC01319747
S1130F20E031F10508F005C2E25CFF4F0C947D103E
S1130F308091C501833029F48091F8018093F601F2
S1130F40F8C18091C501853071F48091F8018093D6
S1130F50F6016091F60180E090E00E94D31082E0F7
S1130F608093FF01E6C18091C501813059F48091DD
S1130F70F801803108F0DDC18091F8018F5F809322
S1130F80F801D7C18091C501823009F0D2C18091A6
S1130F90F801882309F4CDC18091F8018150809330
S1130FA0F801C7C18091C501833069F48091FB01C8
S1130FB08093FD018091F901813009F0BAC183E089
S1130FC08093FF01B6C18091C501853041F48091C1
S1130FD0FB018093FD0189E08093FF01AAC1809108
S1130FE0C501813059F48091FB01873008F0A1C11B
S1130FF08091FB018F5F8093FB019BC18091C501B0
S1131000823009F096C18091FB01882309F491C1D3
S11310108091FB0181508093FB018BC18091C501BC
S11310208330C9F48091F501811104C082E080937A
S1131030FF017FC18091F501813021F48BE0809321
S1131040FF0177C18091F501823009F072C18DE012
S11310508093FF016EC18091C501853009F469C197
S11310608091C501813059F48091F501823008F0F6
S113107060C18091F5018F5F8093F5015AC1809121
S1131080C501823009F055C18091F501882309F426
S113109050C18091F50181508093F5014AC180913E
S11310A0C501833029F58091D001883078F42091EE
S11310B0D001EFE2F1E081E090E002C0880F991FD7
S11310C02A95E2F79081892780830FC02091D0016F
S11310D0EFE2F1E0285081E090E002C0880F991F10
S11310E02A95E2F79181892781830E94230721C1F0
S11310F08091C501853061F56091FD0170E0660F56
S1131100771F660F771F6C597F4F42E050E08FE2E4
S113111091E00E94C910E091FD01F0E0EE0FFF1F85
S1131120EE0FFF1FEF52FE4FAFE2B1E08C918083D0
S1131130E091FD01F0E0EE0FFF1FEE0FFF1FEF52F5
S1131140FE4F11968C91818389E08093FF01F1C059
S11311508091C501813059F48091D0018B3008F021
S1131160E8C08091D0018F5F8093D001E2C080916C
S1131170C501823009F0DDC08091D001882309F4D3
S1131180D8C08091D00181508093D001D2C0809189
S1131190C501833021F48FE08093FF01CAC08091A0
S11311A0C501853021F489E08093FF01C2C080919C
S11311B0C501813059F48093F301E12C00E020E073
S11311C044E765E78FE60E94D005B3C08091C5016E
S11311D0823009F0AEC01092F301E12C00E020E06F
S11311E040E26EE689E60E94D005A3C08091C50165
S11311F0833049F410920502109204028091F201A6
S11312008093F10196C08091C5018530D9F5809114
S1131210F30181111AC0E091FD018091F201F0E027
S1131220EE0FFF1FEE0FFF1FEF52FE4F8283609100
S1131230F2018091FD0190E0880F991F880F991F9A
S11312408A599F4F0E94D31019C0E091FD018091EB
S1131250F201F0E0EE0FFF1FEE0FFF1FEF52FE4F03
S113126083836091F2018091FD0190E0880F991FC2
S1131270880F991F89599F4F0E94D3108DE0809346
S1131280FF0157C08091C501813011F58091F201B1
S11312908F3729F08091F2018F5F8093F201809162
S11312A0F2018F3F49F4E12C00E020E046E666E6D7
S11312B08FE60E94D00505C08091F20190E00E9463
S11312C0ED0581E090E0909305028093040231C023
S11312D08091C501823069F58091F201882324F060
S11312E08091F201811104C08FEF8093F20109C053
S11312F08091F201882329F08091F201815080933A
S1131300F2018091F2018F3F49F4E12C00E020E0EA
S113131046E666E68FE60E94D00505C08091F2019C
S113132090E00E94ED0581E090E0909305028093A7
S113133004020F91EF900895E091FD01F0E0EE0FAB
S1131340FF1FEE0FFF1FEF52FE4F80819181A2819C
S1131350B38180932F0190933001A0933101B09316
S11313603201E091FD01F0E0EE0FFF1FEE0FFF1FD1
S1131370EF52FE4F83818F3F61F0E091FD01F0E079
S1131380EE0FFF1FEE0FFF1FEF52FE4F83810E94EF
S1131390B70240E050E061E083ED0E94E50343E3DF
S11313A051E064E087ED0E94E5034DEF51E061E018
S11313B080ED0E94E5038091FD0190E001960E947A
S11313C0ED050E9423070895EF920F93E091FF012A
S11313D08E2F90E08031910508F068C2FC01E25B39
S11313E0FF4F0C947D1040E250E064E670E081ED24
S11313F091E00E94B11080E090E00E94C1108093BF
S1131400F6018091F601813140F01092F60160916D
S1131410F60180E090E00E94D3100E942D058823FD
S113142011F188EF92E00E94D00184EF92E00E94D3
S1131430D00180EF92E00E9493018091F601811126
S113144009C0E12C00E020E04EE66DE68FE60E9444
S1131450D00505C08091F60190E00E94ED0581E081
S11314608093FF0123C282E08093FF011FC2909109
S1131470F8018091F7019817C1F08091F80181116A
S113148009C0E12C00E020E04EE66DE68FE60E9404
S1131490D00505C08091F80190E00E94ED0581E03F
S11314A090E090930502809304028091F801809368
S11314B0F701FCC18091FD0190E001960E94ED05C9
S11314C088EF92E00E94930184EF92E00E94D001A1
S11314D080EF92E00E94D0018091F901811104C053
S11314E083E08093FF01E2C18091F901813009F02A
S11314F0DDC185E08093FF01D9C11092F90184E038
S11315008093FF018091FD01882331F08091FC01DB
S113151081508093FC0109C08091FD01873028F43B
S11315208091FC018F5F8093FC019091FD0180917B
S1131530FC0198130E949C099091FB018091FA018F
S1131540981709F4B3C18091FB0190E001960E94C1
S1131550ED05E091FB01F0E0EE0FFF1FEE0FFF1F22
S1131560EF52FE4F80819181A281B38180932F013C
S113157090933001A0933101B09332010E9423076C
S113158081E090E090930502809304028FC140E0D3
S113159050E061E083ED0E94E50348E351E064E03C
S11315A087ED0E94E5034FE251E061E080ED0E9487
S11315B0E5030E942307E12C00E020E043E46CE40F
S11315C08DE40E94D00581E08093F90186E0809348
S11315D0FF0190912F0180912B01981311C09091DC
S11315E0300180912C0198130BC0909131018091AE
S11315F02D01981305C09091320180912E0198130A
S11316000E9423079091FB018091FA01981709F435
S11316104DC18091FB0190E001960E94ED05E0919F
S1131620FB01F0E0EE0FFF1FEE0FFF1FEF52FE4F26
S113163080819181A281B38180932F0190933001A5
S1131640A0933101B09332010E94230781E090E01E
S1131650909305028093040229C18091F5018230A0
S113166030F48091F5018F5F8093F40109C080917B
S1131670F501882329F08091F50181508093F401CC
S11316800E949C098AE08093FF019091F50180916A
S1131690F401981791F18091F50181110DC088EF43
S11316A092E00E94310284EF92E00E94D00180EF28
S11316B092E00E94D00121C08091F501813069F44B
S11316C088EF92E00E94D00184EF92E00E94310200
S11316D080EF92E00E94D00110C08091F501823029
S11316E061F488EF92E00E94D00184EF92E00E94BE
S11316F0D00180EF92E00E9431028091F501809345
S1131700F401D4C088EF92E00E94D00184EF92E00B
S11317100E94930180EF92E00E94D001E091FD01CC
S1131720F0E0EE0FFF1FEE0FFF1FEF52FE4F808120
S11317309181A281B38180932F0190933001A09372
S11317403101B09332011092D00181E08093CF0136
S11317508CE08093FF019091D0018091CF01981784
S113176089F18091D001883098F48091D00141E0D2
S113177050E002C0440F551F8A95E2F764E180E00F
S11317800E94650140E465E180E00E94650114C0A7
S113179040E064E180E00E9465018091D0018850BE
S11317A041E050E002C0440F551F8A95E2F74064BF
S11317B065E180E00E94650181E090E0909302027F
S11317C0809301028091D0018093CF016FC088EF94
S11317D092E00E94D00184EF92E00E94D00180EF59
S11317E092E00E9493018091F301811109C0E12CE0
S11317F000E020E040E26EE689E60E94D00508C0E1
S1131800E12C00E020E044E765E78FE60E94D00584
S11318108EE08093FF014AC08091F301811119C0C9
S1131820E091FD01F0E0EE0FFF1FEE0FFF1FEF52FE
S1131830FE4F82818093F201E091FD01F0E0EE0F12
S1131840FF1FEE0FFF1FEF52FE4F82818093F101C5
S113185018C0E091FD01F0E0EE0FFF1FEE0FFF1F37
S1131860EF52FE4F83818093F201E091FD01F0E09D
S1131870EE0FFF1FEE0FFF1FEF52FE4F8381809389
S1131880F1018091F2018F3F49F4E12C00E020E066
S113189046E666E68FE60E94D00505C08091F20117
S11318A090E00E94ED0580E18093FF018091FD01AD
S11318B08093FC018091FF018093FE0180912F01B0
S11318C090913001A0913101B091320180932B01AC
S11318D090932C01A0932D01B0932E018091FB01D4
S11318E08093FA010F91EF90089584B5826084BDCE
S11318F016BC8BE987BDEEE6F0E0808182608083D0
S113190085B5846085BD08959B01AC01A8EEB3E064
S11319100E9483102DEC37E040E050E00E945B1001
S1131920CA01B90108951F920F920FB60F921124A4
S11319302F933F938F939F9380910402909105027C
S1131940892B99F08091040290910502019690935D
S11319500502809304028D3D954038F010920502F3
S11319601092040281E0809303028091010290911D
S11319700202892B99F08091010290910202019652
S113198090930202809301028739910538F01092F6
S113199002021092010281E0809300028091C3014F
S11319A0882361F08091C3018F5F8093C3018430E9
S11319B028F01092C30181E08093C4018091030157
S11319C09091040101969093040180930301893E50
S11319D0934040F081E090E09093040180930301F0
S11319E08093C2018091CA018F5F8093CA018330C2
S11319F028F01092CA0181E08093C90180914101CD
S1131A00909142010196909342018093410120916B
S1131A100001309101012817390778F4109242012E
S1131A201092410180913F01811104C080913E01D7
S1131A30882319F081E0809340018091C601909140
S1131A40C701892BB9F18091C6019091C701019614
S1131A509093C7018093C6018091C6019091C701FC
S1131A608935924068F01A9B04C085E08093C501D3
S1131A7002C01092C5011092C7011092C6011AC08B
S1131A808091C6019091C701CD97A0F08091C501C6
S1131A90882369F00FC083E08093C5011092C701C9
S1131AA01092C60107C084E08093C50103C01A994F
S1131AB0FACFF1CF9F918F913F912F910F900FBE4D
S1131AC00F901F901895CF93DF93D62FC42F519A60
S1131AD0599A10924F0210924E0210924D02109297
S1131AE04C02A0E0B0E0880F991FAA1FBB1F880F0B
S1131AF0991FAA1FBB1F9C01AD01220F331F441F56
S1131B00551F220F331F441F551F60E07DE281E300
S1131B1091E00E945B10215031093093C50020935D
S1131B20C400E2ECF0E080818F738083D23021F432
S1131B3080818860808305C0E2ECF0E08081877F4B
S1131B408083C23049F4E2ECF0E080818F7E8083B0
S1131B508081806280830DC0C33031F4E2ECF0E018
S1131B6080818063808305C0E2ECF0E080818F7C1B
S1131B708083E2ECF0E0808186608083E1ECF0E039
S1131B808081806A8083808188618083DF91CF91A6
S1131B90089590914D0280914C02981791F0E09134
S1131BA04C02EF5FEF71E0934C02F0E0E05BFD4F1D
S1131BB0208180914B0290E0982F8827820F911DFD
S1131BC0089580E091E0089580914D0220914C02A7
S1131BD090E04F96821B91096FE170E00E944710DC
S1131BE0089590914F029F5F9F7120914E0292172A
S1131BF051F0E92FF0E0E059FD4F808390934F02BC
S1131C0081E090E0089580E090E00895E1ECF0E058
S1131C1080818062808308951F920F920FB60F9285
S1131C2011242F938F939F93EF93FF938091C00080
S1131C302091C6008770E0914D02EF5FEF719091A3
S1131C404C02E91739F0E0934D02F0E0E05BFD4F00
S1131C50208301C082E080934B02FF91EF919F911A
S1131C608F912F910F900FBE0F901F9018951F9278
S1131C700F920FB60F9211248F939F93EF93FF93BC
S1131C8090914F0280914E02981769F0E0914E02B4
S1131C90EF5FEF71E0934E02F0E0E059FD4F808179
S1131CA08093C60005C0E1ECF0E080818F7D8083E5
S1131CB0FF91EF919F918F910F900FBE0F901F9006
S1131CC01895CF93DF93D62FC42F539A5B9A109213
S1131CD00A02109209021092080210920702A0E070
S1131CE0B0E0880F991FAA1FBB1F880F991FAA1F56
S1131CF0BB1F9C01AD01220F331F441F551F220F30
S1131D00331F441F551F60E07DE281E391E00E9490
S1131D105B10215031093093CD002093CC00EAECC4
S1131D20F0E080818F738083D23021F480818860D9
S1131D30808305C0EAECF0E08081877F8083C23035
S1131D4031F4EAECF0E08081806280830DC0C3301E
S1131D5031F4EAECF0E080818063808305C0EAEC32
S1131D60F0E080818F7C8083EAECF0E08081866003
S1131D708083E9ECF0E08081806A808380818861DF
S1131D808083DF91CF91089590910802809107029A
S1131D90981791F0E0910702EF5FEF71E09307026B
S1131DA0F0E0E55FFD4F20818091060290E0982FDE
S1131DB08827820F911D089580E091E00895209175
S1131DC00A022F5F2F71909109022917E1F3E22F84
S1131DD0F0E0E55DFD4F808320930A02E9ECF0E03A
S1131DE08081806280830895CF93DF93EC018881A2
S1131DF0882331F021960E94DF0E89918111FBCF57
S1131E00DF91CF910895809108022091070290E01C
S1131E104F96821B91096FE170E00E94471008956C
S1131E201F920F920FB60F9211242F938F939F93AB
S1131E30EF93FF938091C8002091CE008770E091CA
S1131E400802EF5FEF7190910702E91739F0E09310
S1131E500802F0E0E55FFD4F208301C082E080933B
S1131E600602FF91EF919F918F912F910F900FBEDA
S1131E700F901F9018951F920F920FB60F92112476
S1131E808F939F93EF93FF9390910A02809109029D
S1131E90981769F0E0910902EF5FEF71E09309028E
S1131EA0F0E0E55DFD4F80818093CE0005C0E9EC54
S1131EB0F0E080818F7D8083FF91EF919F918F91DE
S1131EC00F900FBE0F901F901895EF92FF921F93E3
S1131ED0CF93DF93CDB7DEB764970FB6F894DEBF28
S1131EE00FBECDBF25E041E060E0CE0141960E94E7
S1131EF00D0289899A89AB89BC898093F8029093F1
S1131F00F902A093FA02B093FB0226E041E060E0FC
S1131F10CE010D960E940D028D859E85AF85B889F0
S1131F208093F4029093F502A093F602B093F70223
S1131F3027E041E060E0CE0109960E940D02898508
S1131F409A85AB85BC858093F0029093F102A093AF
S1131F50F202B093F3020F2EF0EDEF2EF2E0FF2E1B
S1131F60F02D10E0212F40E060E0CE0105960E94A4
S1131F700D028D819E81AF81B885F7018193919384
S1131F80A193B1937F011F5F183061F70F2EF0EC1E
S1131F90EF2EF2E0FF2EF02D10E0212F41E060E063
S1131FA0CE0101960E940D0289819A81AB81BC8188
S1131FB0F70181939193A193B1937F011F5F143033
S1131FC061F788E691E00E94530264960FB6F89494
S1131FD0DEBF0FBECDBFDF91CF911F91FF90EF9079
S1131FE008950F931F93CF93DF9388EF92E00E949D
S1131FF08F0184EF92E00E948F0180EF92E00E94B3
S11320008F01C0EDD2E000EF12E0CE010E948F01FB
S113201024960C171D07C9F780EC92E00E948F01EB
S113202084EC92E00E948F0188EC92E00E948F0180
S11320308CEC92E00E948F01C0EAD2E000EC12E046
S1132040CE010E948F012496C017D107C9F780E9F9
S113205092E00E948F0184E992E00E948F0188E956
S113206092E00E948F018CE992E00E948F01DF913F
S1132070CF911F910F910895882331F090E08695B8
S11320809F5F8111FCCF01C090E0892F089597FBD9
S1132090072E16F4009407D077FD09D00E948E1005
S11320A007FC05D03EF4909581959F4F0895709557
S11320B061957F4F0895A1E21A2EAA1BBB1BFD0157
S11320C00DC0AA1FBB1FEE1FFF1FA217B307E40713
S11320D0F50720F0A21BB30BE40BF50B661F771F6B
S11320E0881F991F1A9469F760957095809590954B
S11320F09B01AC01BD01CF010895EE0FFF1F0590B8
S1132100F491E02D09940E94A210A59F900DB49F14
S1132110900DA49F800D911D11240895AA1BBB1B33
S113212051E107C0AA1FBB1FA617B70710F0A61BD3
S1132130B70B881F991F5A95A9F780959095BC01F4
S1132140CD010895A29FB001B39FC001A39F700D5C
S1132150811D1124911DB29F700D811D1124911DAB
S11321600895DC01CB01FC01F999FECF06C0F2BD54
S1132170E1BDF89A319600B40D9241505040B8F741
S11321800895F999FECF92BD81BDF89A992780B53B
S11321900895DC01CB0103C02D910E94D41041505D
S11321A05040D0F70895262FF999FECF1FBA92BD5B
S11321B081BD20BD0FB6F894FA9AF99A0FBE019624
S10921C00895F894FFCF1E
S11321C66400010100C0F9A4B0999282F880908855
S11321D683C6A1868EC28BFBE18AC7EAABA38C9821
S11321E6AFD287E3E3C1EB91E4BFFF0000FFFF003A
S11121F600FFFF50726520004C6F6F700000F8
S9030000FC
